{
  "contractName": "GovernorAlpha",
  "abi": [
    {
      "inputs": [
        {
          "internalType": "address",
          "name": "timelock_",
          "type": "address"
        },
        {
          "internalType": "address",
          "name": "yam_",
          "type": "address"
        }
      ],
      "payable": false,
      "stateMutability": "nonpayable",
      "type": "constructor"
    },
    {
      "anonymous": false,
      "inputs": [
        {
          "indexed": false,
          "internalType": "uint256",
          "name": "id",
          "type": "uint256"
        }
      ],
      "name": "ProposalCanceled",
      "type": "event"
    },
    {
      "anonymous": false,
      "inputs": [
        {
          "indexed": false,
          "internalType": "uint256",
          "name": "id",
          "type": "uint256"
        },
        {
          "indexed": false,
          "internalType": "address",
          "name": "proposer",
          "type": "address"
        },
        {
          "indexed": false,
          "internalType": "address[]",
          "name": "targets",
          "type": "address[]"
        },
        {
          "indexed": false,
          "internalType": "uint256[]",
          "name": "values",
          "type": "uint256[]"
        },
        {
          "indexed": false,
          "internalType": "string[]",
          "name": "signatures",
          "type": "string[]"
        },
        {
          "indexed": false,
          "internalType": "bytes[]",
          "name": "calldatas",
          "type": "bytes[]"
        },
        {
          "indexed": false,
          "internalType": "uint256",
          "name": "startBlock",
          "type": "uint256"
        },
        {
          "indexed": false,
          "internalType": "uint256",
          "name": "endBlock",
          "type": "uint256"
        },
        {
          "indexed": false,
          "internalType": "string",
          "name": "description",
          "type": "string"
        }
      ],
      "name": "ProposalCreated",
      "type": "event"
    },
    {
      "anonymous": false,
      "inputs": [
        {
          "indexed": false,
          "internalType": "uint256",
          "name": "id",
          "type": "uint256"
        }
      ],
      "name": "ProposalExecuted",
      "type": "event"
    },
    {
      "anonymous": false,
      "inputs": [
        {
          "indexed": false,
          "internalType": "uint256",
          "name": "id",
          "type": "uint256"
        },
        {
          "indexed": false,
          "internalType": "uint256",
          "name": "eta",
          "type": "uint256"
        }
      ],
      "name": "ProposalQueued",
      "type": "event"
    },
    {
      "anonymous": false,
      "inputs": [
        {
          "indexed": false,
          "internalType": "address",
          "name": "voter",
          "type": "address"
        },
        {
          "indexed": false,
          "internalType": "uint256",
          "name": "proposalId",
          "type": "uint256"
        },
        {
          "indexed": false,
          "internalType": "bool",
          "name": "support",
          "type": "bool"
        },
        {
          "indexed": false,
          "internalType": "uint256",
          "name": "votes",
          "type": "uint256"
        }
      ],
      "name": "VoteCast",
      "type": "event"
    },
    {
      "constant": true,
      "inputs": [],
      "name": "BALLOT_TYPEHASH",
      "outputs": [
        {
          "internalType": "bytes32",
          "name": "",
          "type": "bytes32"
        }
      ],
      "payable": false,
      "stateMutability": "view",
      "type": "function"
    },
    {
      "constant": true,
      "inputs": [],
      "name": "DOMAIN_TYPEHASH",
      "outputs": [
        {
          "internalType": "bytes32",
          "name": "",
          "type": "bytes32"
        }
      ],
      "payable": false,
      "stateMutability": "view",
      "type": "function"
    },
    {
      "constant": true,
      "inputs": [],
      "name": "guardian",
      "outputs": [
        {
          "internalType": "address",
          "name": "",
          "type": "address"
        }
      ],
      "payable": false,
      "stateMutability": "view",
      "type": "function"
    },
    {
      "constant": true,
      "inputs": [
        {
          "internalType": "address",
          "name": "",
          "type": "address"
        }
      ],
      "name": "latestProposalIds",
      "outputs": [
        {
          "internalType": "uint256",
          "name": "",
          "type": "uint256"
        }
      ],
      "payable": false,
      "stateMutability": "view",
      "type": "function"
    },
    {
      "constant": true,
      "inputs": [],
      "name": "name",
      "outputs": [
        {
          "internalType": "string",
          "name": "",
          "type": "string"
        }
      ],
      "payable": false,
      "stateMutability": "view",
      "type": "function"
    },
    {
      "constant": true,
      "inputs": [],
      "name": "proposalCount",
      "outputs": [
        {
          "internalType": "uint256",
          "name": "",
          "type": "uint256"
        }
      ],
      "payable": false,
      "stateMutability": "view",
      "type": "function"
    },
    {
      "constant": true,
      "inputs": [
        {
          "internalType": "uint256",
          "name": "",
          "type": "uint256"
        }
      ],
      "name": "proposals",
      "outputs": [
        {
          "internalType": "uint256",
          "name": "id",
          "type": "uint256"
        },
        {
          "internalType": "address",
          "name": "proposer",
          "type": "address"
        },
        {
          "internalType": "uint256",
          "name": "eta",
          "type": "uint256"
        },
        {
          "internalType": "uint256",
          "name": "startBlock",
          "type": "uint256"
        },
        {
          "internalType": "uint256",
          "name": "endBlock",
          "type": "uint256"
        },
        {
          "internalType": "uint256",
          "name": "forVotes",
          "type": "uint256"
        },
        {
          "internalType": "uint256",
          "name": "againstVotes",
          "type": "uint256"
        },
        {
          "internalType": "bool",
          "name": "canceled",
          "type": "bool"
        },
        {
          "internalType": "bool",
          "name": "executed",
          "type": "bool"
        }
      ],
      "payable": false,
      "stateMutability": "view",
      "type": "function"
    },
    {
      "constant": true,
      "inputs": [],
      "name": "timelock",
      "outputs": [
        {
          "internalType": "contract TimelockInterface",
          "name": "",
          "type": "address"
        }
      ],
      "payable": false,
      "stateMutability": "view",
      "type": "function"
    },
    {
      "constant": true,
      "inputs": [],
      "name": "yam",
      "outputs": [
        {
          "internalType": "contract YAMInterface",
          "name": "",
          "type": "address"
        }
      ],
      "payable": false,
      "stateMutability": "view",
      "type": "function"
    },
    {
      "constant": true,
      "inputs": [],
      "name": "quorumVotes",
      "outputs": [
        {
          "internalType": "uint256",
          "name": "",
          "type": "uint256"
        }
      ],
      "payable": false,
      "stateMutability": "view",
      "type": "function"
    },
    {
      "constant": true,
      "inputs": [],
      "name": "proposalThreshold",
      "outputs": [
        {
          "internalType": "uint256",
          "name": "",
          "type": "uint256"
        }
      ],
      "payable": false,
      "stateMutability": "view",
      "type": "function"
    },
    {
      "constant": true,
      "inputs": [],
      "name": "proposalMaxOperations",
      "outputs": [
        {
          "internalType": "uint256",
          "name": "",
          "type": "uint256"
        }
      ],
      "payable": false,
      "stateMutability": "pure",
      "type": "function"
    },
    {
      "constant": true,
      "inputs": [],
      "name": "votingDelay",
      "outputs": [
        {
          "internalType": "uint256",
          "name": "",
          "type": "uint256"
        }
      ],
      "payable": false,
      "stateMutability": "pure",
      "type": "function"
    },
    {
      "constant": true,
      "inputs": [],
      "name": "votingPeriod",
      "outputs": [
        {
          "internalType": "uint256",
          "name": "",
          "type": "uint256"
        }
      ],
      "payable": false,
      "stateMutability": "pure",
      "type": "function"
    },
    {
      "constant": false,
      "inputs": [
        {
          "internalType": "address[]",
          "name": "targets",
          "type": "address[]"
        },
        {
          "internalType": "uint256[]",
          "name": "values",
          "type": "uint256[]"
        },
        {
          "internalType": "string[]",
          "name": "signatures",
          "type": "string[]"
        },
        {
          "internalType": "bytes[]",
          "name": "calldatas",
          "type": "bytes[]"
        },
        {
          "internalType": "string",
          "name": "description",
          "type": "string"
        }
      ],
      "name": "propose",
      "outputs": [
        {
          "internalType": "uint256",
          "name": "",
          "type": "uint256"
        }
      ],
      "payable": false,
      "stateMutability": "nonpayable",
      "type": "function"
    },
    {
      "constant": false,
      "inputs": [
        {
          "internalType": "uint256",
          "name": "proposalId",
          "type": "uint256"
        }
      ],
      "name": "queue",
      "outputs": [],
      "payable": false,
      "stateMutability": "nonpayable",
      "type": "function"
    },
    {
      "constant": false,
      "inputs": [
        {
          "internalType": "uint256",
          "name": "proposalId",
          "type": "uint256"
        }
      ],
      "name": "execute",
      "outputs": [],
      "payable": true,
      "stateMutability": "payable",
      "type": "function"
    },
    {
      "constant": false,
      "inputs": [
        {
          "internalType": "uint256",
          "name": "proposalId",
          "type": "uint256"
        }
      ],
      "name": "cancel",
      "outputs": [],
      "payable": false,
      "stateMutability": "nonpayable",
      "type": "function"
    },
    {
      "constant": true,
      "inputs": [
        {
          "internalType": "uint256",
          "name": "proposalId",
          "type": "uint256"
        }
      ],
      "name": "getActions",
      "outputs": [
        {
          "internalType": "address[]",
          "name": "targets",
          "type": "address[]"
        },
        {
          "internalType": "uint256[]",
          "name": "values",
          "type": "uint256[]"
        },
        {
          "internalType": "string[]",
          "name": "signatures",
          "type": "string[]"
        },
        {
          "internalType": "bytes[]",
          "name": "calldatas",
          "type": "bytes[]"
        }
      ],
      "payable": false,
      "stateMutability": "view",
      "type": "function"
    },
    {
      "constant": true,
      "inputs": [
        {
          "internalType": "uint256",
          "name": "proposalId",
          "type": "uint256"
        },
        {
          "internalType": "address",
          "name": "voter",
          "type": "address"
        }
      ],
      "name": "getReceipt",
      "outputs": [
        {
          "components": [
            {
              "internalType": "bool",
              "name": "hasVoted",
              "type": "bool"
            },
            {
              "internalType": "bool",
              "name": "support",
              "type": "bool"
            },
            {
              "internalType": "uint256",
              "name": "votes",
              "type": "uint256"
            }
          ],
          "internalType": "struct GovernorAlpha.Receipt",
          "name": "",
          "type": "tuple"
        }
      ],
      "payable": false,
      "stateMutability": "view",
      "type": "function"
    },
    {
      "constant": true,
      "inputs": [
        {
          "internalType": "uint256",
          "name": "proposalId",
          "type": "uint256"
        }
      ],
      "name": "state",
      "outputs": [
        {
          "internalType": "enum GovernorAlpha.ProposalState",
          "name": "",
          "type": "uint8"
        }
      ],
      "payable": false,
      "stateMutability": "view",
      "type": "function"
    },
    {
      "constant": false,
      "inputs": [
        {
          "internalType": "uint256",
          "name": "proposalId",
          "type": "uint256"
        },
        {
          "internalType": "bool",
          "name": "support",
          "type": "bool"
        }
      ],
      "name": "castVote",
      "outputs": [],
      "payable": false,
      "stateMutability": "nonpayable",
      "type": "function"
    },
    {
      "constant": false,
      "inputs": [
        {
          "internalType": "uint256",
          "name": "proposalId",
          "type": "uint256"
        },
        {
          "internalType": "bool",
          "name": "support",
          "type": "bool"
        },
        {
          "internalType": "uint8",
          "name": "v",
          "type": "uint8"
        },
        {
          "internalType": "bytes32",
          "name": "r",
          "type": "bytes32"
        },
        {
          "internalType": "bytes32",
          "name": "s",
          "type": "bytes32"
        }
      ],
      "name": "castVoteBySig",
      "outputs": [],
      "payable": false,
      "stateMutability": "nonpayable",
      "type": "function"
    },
    {
      "constant": false,
      "inputs": [],
      "name": "__acceptAdmin",
      "outputs": [],
      "payable": false,
      "stateMutability": "nonpayable",
      "type": "function"
    },
    {
      "constant": false,
      "inputs": [],
      "name": "__abdicate",
      "outputs": [],
      "payable": false,
      "stateMutability": "nonpayable",
      "type": "function"
    },
    {
      "constant": false,
      "inputs": [
        {
          "internalType": "address",
          "name": "newPendingAdmin",
          "type": "address"
        },
        {
          "internalType": "uint256",
          "name": "eta",
          "type": "uint256"
        }
      ],
      "name": "__queueSetTimelockPendingAdmin",
      "outputs": [],
      "payable": false,
      "stateMutability": "nonpayable",
      "type": "function"
    },
    {
      "constant": false,
      "inputs": [
        {
          "internalType": "address",
          "name": "newPendingAdmin",
          "type": "address"
        },
        {
          "internalType": "uint256",
          "name": "eta",
          "type": "uint256"
        }
      ],
      "name": "__executeSetTimelockPendingAdmin",
      "outputs": [],
      "payable": false,
      "stateMutability": "nonpayable",
      "type": "function"
    }
  ],
  "bytecode": "0x60806040523480156200001157600080fd5b506040516200561e3803806200561e833981810160405262000037919081019062000118565b816000806101000a81548173ffffffffffffffffffffffffffffffffffffffff021916908373ffffffffffffffffffffffffffffffffffffffff16021790555080600160006101000a81548173ffffffffffffffffffffffffffffffffffffffff021916908373ffffffffffffffffffffffffffffffffffffffff16021790555033600260006101000a81548173ffffffffffffffffffffffffffffffffffffffff021916908373ffffffffffffffffffffffffffffffffffffffff1602179055505050620001a7565b60008151905062000112816200018d565b92915050565b600080604083850312156200012c57600080fd5b60006200013c8582860162000101565b92505060206200014f8582860162000101565b9150509250929050565b600062000166826200016d565b9050919050565b600073ffffffffffffffffffffffffffffffffffffffff82169050919050565b620001988162000159565b8114620001a457600080fd5b50565b61546780620001b76000396000f3fe60806040526004361061019c5760003560e01c8063452a9320116100ec578063d33219b41161008a578063ddf0b00911610064578063ddf0b009146105b1578063deaaa7cc146105da578063e23a9a5214610605578063fe0d94c1146106425761019c565b8063d33219b41461051e578063da35c66414610549578063da95691a146105745761019c565b80637bdbe4d0116100c65780637bdbe4d01461048857806391500671146104b3578063b58131b0146104dc578063b9a61961146105075761019c565b8063452a93201461041d5780634634c61f14610448578063760fbc13146104715761019c565b806320606b7011610159578063328dd98211610133578063328dd9821461034c5780633932abb11461038c5780633e4f49e6146103b757806340e58ee5146103f45761019c565b806320606b70146102cd57806321f43e42146102f857806324bc1a64146103215761019c565b8063013cf08b146101a157806302a251a3146101e657806306fdde0314610211578063071c03321461023c57806315373e3d1461026757806317977c6114610290575b600080fd5b3480156101ad57600080fd5b506101c860048036036101c3919081019061351b565b61065e565b6040516101dd99989796959493929190614e77565b60405180910390f35b3480156101f257600080fd5b506101fb6106e6565b6040516102089190614dac565b60405180910390f35b34801561021d57600080fd5b506102266106f0565b6040516102339190614a8d565b60405180910390f35b34801561024857600080fd5b50610251610729565b60405161025e9190614a57565b60405180910390f35b34801561027357600080fd5b5061028e600480360361028991908101906135a9565b61074f565b005b34801561029c57600080fd5b506102b760048036036102b29190810190613334565b61075e565b6040516102c49190614dac565b60405180910390f35b3480156102d957600080fd5b506102e2610776565b6040516102ef9190614960565b60405180910390f35b34801561030457600080fd5b5061031f600480360361031a919081019061335d565b61078d565b005b34801561032d57600080fd5b5061033661091a565b6040516103439190614dac565b60405180910390f35b34801561035857600080fd5b50610373600480360361036e919081019061351b565b6109d5565b60405161038394939291906148ff565b60405180910390f35b34801561039857600080fd5b506103a1610cb2565b6040516103ae9190614dac565b60405180910390f35b3480156103c357600080fd5b506103de60048036036103d9919081019061351b565b610cbb565b6040516103eb9190614a72565b60405180910390f35b34801561040057600080fd5b5061041b6004803603610416919081019061351b565b610e9f565b005b34801561042957600080fd5b5061043261122d565b60405161043f919061472c565b60405180910390f35b34801561045457600080fd5b5061046f600480360361046a91908101906135e5565b611253565b005b34801561047d57600080fd5b50610486611422565b005b34801561049457600080fd5b5061049d6114f6565b6040516104aa9190614dac565b60405180910390f35b3480156104bf57600080fd5b506104da60048036036104d5919081019061335d565b6114ff565b005b3480156104e857600080fd5b506104f1611687565b6040516104fe9190614dac565b60405180910390f35b34801561051357600080fd5b5061051c611738565b005b34801561052a57600080fd5b5061053361184b565b6040516105409190614a3c565b60405180910390f35b34801561055557600080fd5b5061055e611870565b60405161056b9190614dac565b60405180910390f35b34801561058057600080fd5b5061059b60048036036105969190810190613399565b611876565b6040516105a89190614dac565b60405180910390f35b3480156105bd57600080fd5b506105d860048036036105d3919081019061351b565b611e35565b005b3480156105e657600080fd5b506105ef612184565b6040516105fc9190614960565b60405180910390f35b34801561061157600080fd5b5061062c6004803603610627919081019061356d565b61219b565b6040516106399190614d91565b60405180910390f35b61065c6004803603610657919081019061351b565b612249565b005b60046020528060005260406000206000915090508060000154908060010160009054906101000a900473ffffffffffffffffffffffffffffffffffffffff169080600201549080600701549080600801549080600901549080600a01549080600b0160009054906101000a900460ff169080600b0160019054906101000a900460ff16905089565b6000614380905090565b6040518060400160405280601281526020017f59414d20476f7665726e6f7220416c706861000000000000000000000000000081525081565b600160009054906101000a900473ffffffffffffffffffffffffffffffffffffffff1681565b61075a338383612496565b5050565b60056020528060005260406000206000915090505481565b60405161078290614702565b604051809103902081565b600260009054906101000a900473ffffffffffffffffffffffffffffffffffffffff1673ffffffffffffffffffffffffffffffffffffffff163373ffffffffffffffffffffffffffffffffffffffff161461081d576040517f08c379a000000000000000000000000000000000000000000000000000000000815260040161081490614b31565b60405180910390fd5b6000809054906101000a900473ffffffffffffffffffffffffffffffffffffffff1673ffffffffffffffffffffffffffffffffffffffff16630825f38f6000809054906101000a900473ffffffffffffffffffffffffffffffffffffffff1660008560405160200161088f919061472c565b604051602081830303815290604052856040518563ffffffff1660e01b81526004016108be9493929190614770565b600060405180830381600087803b1580156108d857600080fd5b505af11580156108ec573d6000803e3d6000fd5b505050506040513d6000823e3d601f19601f8201168201806040525061091591908101906134da565b505050565b60006109d06109c9600160009054906101000a900473ffffffffffffffffffffffffffffffffffffffff1673ffffffffffffffffffffffffffffffffffffffff166397d63f936040518163ffffffff1660e01b815260040160206040518083038186803b15801561098a57600080fd5b505afa15801561099e573d6000803e3d6000fd5b505050506040513d601f19601f820116820180604052506109c29190810190613544565b600461271f565b606461278f565b905090565b60608060608060006004600087815260200190815260200160002090508060030181600401826005018360060183805480602002602001604051908101604052809291908181526020018280548015610a8357602002820191906000526020600020905b8160009054906101000a900473ffffffffffffffffffffffffffffffffffffffff1673ffffffffffffffffffffffffffffffffffffffff1681526020019060010190808311610a39575b5050505050935082805480602002602001604051908101604052809291908181526020018280548015610ad557602002820191906000526020600020905b815481526020019060010190808311610ac1575b5050505050925081805480602002602001604051908101604052809291908181526020016000905b82821015610bb9578382906000526020600020018054600181600116156101000203166002900480601f016020809104026020016040519081016040528092919081815260200182805460018160011615610100020316600290048015610ba55780601f10610b7a57610100808354040283529160200191610ba5565b820191906000526020600020905b815481529060010190602001808311610b8857829003601f168201915b505050505081526020019060010190610afd565b50505050915080805480602002602001604051908101604052809291908181526020016000905b82821015610c9c578382906000526020600020018054600181600116156101000203166002900480601f016020809104026020016040519081016040528092919081815260200182805460018160011615610100020316600290048015610c885780601f10610c5d57610100808354040283529160200191610c88565b820191906000526020600020905b815481529060010190602001808311610c6b57829003601f168201915b505050505081526020019060010190610be0565b5050505090509450945094509450509193509193565b60006001905090565b60008160035410158015610ccf5750600082115b610d0e576040517f08c379a0000000000000000000000000000000000000000000000000000000008152600401610d0590614b51565b60405180910390fd5b600060046000848152602001908152602001600020905080600b0160009054906101000a900460ff1615610d46576002915050610e9a565b80600701544311610d5b576000915050610e9a565b80600801544311610d70576001915050610e9a565b80600a01548160090154111580610d915750610d8a61091a565b8160090154105b15610da0576003915050610e9a565b600081600201541415610db7576004915050610e9a565b80600b0160019054906101000a900460ff1615610dd8576007915050610e9a565b610e8481600201546000809054906101000a900473ffffffffffffffffffffffffffffffffffffffff1673ffffffffffffffffffffffffffffffffffffffff1663c1a287e26040518163ffffffff1660e01b815260040160206040518083038186803b158015610e4757600080fd5b505afa158015610e5b573d6000803e3d6000fd5b505050506040513d601f19601f82011682018060405250610e7f9190810190613544565b6127d9565b4210610e94576006915050610e9a565b60059150505b919050565b6000610eaa82610cbb565b9050600780811115610eb857fe5b816007811115610ec457fe5b1415610f05576040517f08c379a0000000000000000000000000000000000000000000000000000000008152600401610efc90614d11565b60405180910390fd5b6000600460008481526020019081526020016000209050600260009054906101000a900473ffffffffffffffffffffffffffffffffffffffff1673ffffffffffffffffffffffffffffffffffffffff163373ffffffffffffffffffffffffffffffffffffffff1614806110585750610f7b611687565b600160009054906101000a900473ffffffffffffffffffffffffffffffffffffffff1673ffffffffffffffffffffffffffffffffffffffff1663782d6fe18360010160009054906101000a900473ffffffffffffffffffffffffffffffffffffffff16610fe943600161282e565b6040518363ffffffff1660e01b81526004016110069291906147cf565b60206040518083038186803b15801561101e57600080fd5b505afa158015611032573d6000803e3d6000fd5b505050506040513d601f19601f820116820180604052506110569190810190613544565b105b611097576040517f08c379a000000000000000000000000000000000000000000000000000000000815260040161108e90614c51565b60405180910390fd5b600181600b0160006101000a81548160ff02191690831515021790555060008090505b81600301805490508110156111f0576000809054906101000a900473ffffffffffffffffffffffffffffffffffffffff1673ffffffffffffffffffffffffffffffffffffffff1663591fcdfe83600301838154811061111557fe5b9060005260206000200160009054906101000a900473ffffffffffffffffffffffffffffffffffffffff1684600401848154811061114f57fe5b906000526020600020015485600501858154811061116957fe5b9060005260206000200186600601868154811061118257fe5b9060005260206000200187600201546040518663ffffffff1660e01b81526004016111b195949392919061489e565b600060405180830381600087803b1580156111cb57600080fd5b505af11580156111df573d6000803e3d6000fd5b5050505080806001019150506110ba565b507f789cf55be980739dad1d0699b93b58e806b51c9d96619bfa8fe0a28abaa7b30c836040516112209190614dac565b60405180910390a1505050565b600260009054906101000a900473ffffffffffffffffffffffffffffffffffffffff1681565b600060405161126190614702565b60405180910390206040518060400160405280601281526020017f59414d20476f7665726e6f7220416c7068610000000000000000000000000000815250805190602001206112ae61287e565b306040516020016112c2949392919061497b565b60405160208183030381529060405280519060200120905060006040516112e890614717565b60405180910390208787604051602001611304939291906149c0565b604051602081830303815290604052805190602001209050600082826040516020016113319291906146cb565b60405160208183030381529060405280519060200120905060006001828888886040516000815260200160405260405161136e94939291906149f7565b6020604051602081039080840390855afa158015611390573d6000803e3d6000fd5b505050602060405103519050600073ffffffffffffffffffffffffffffffffffffffff168173ffffffffffffffffffffffffffffffffffffffff16141561140c576040517f08c379a000000000000000000000000000000000000000000000000000000000815260040161140390614cd1565b60405180910390fd5b611417818a8a612496565b505050505050505050565b600260009054906101000a900473ffffffffffffffffffffffffffffffffffffffff1673ffffffffffffffffffffffffffffffffffffffff163373ffffffffffffffffffffffffffffffffffffffff16146114b2576040517f08c379a00000000000000000000000000000000000000000000000000000000081526004016114a990614d71565b60405180910390fd5b6000600260006101000a81548173ffffffffffffffffffffffffffffffffffffffff021916908373ffffffffffffffffffffffffffffffffffffffff160217905550565b6000600a905090565b600260009054906101000a900473ffffffffffffffffffffffffffffffffffffffff1673ffffffffffffffffffffffffffffffffffffffff163373ffffffffffffffffffffffffffffffffffffffff161461158f576040517f08c379a000000000000000000000000000000000000000000000000000000000815260040161158690614bb1565b60405180910390fd5b6000809054906101000a900473ffffffffffffffffffffffffffffffffffffffff1673ffffffffffffffffffffffffffffffffffffffff16633a66f9016000809054906101000a900473ffffffffffffffffffffffffffffffffffffffff16600085604051602001611601919061472c565b604051602081830303815290604052856040518563ffffffff1660e01b81526004016116309493929190614770565b602060405180830381600087803b15801561164a57600080fd5b505af115801561165e573d6000803e3d6000fd5b505050506040513d601f19601f8201168201806040525061168291908101906134b1565b505050565b6000611733600160009054906101000a900473ffffffffffffffffffffffffffffffffffffffff1673ffffffffffffffffffffffffffffffffffffffff166397d63f936040518163ffffffff1660e01b815260040160206040518083038186803b1580156116f457600080fd5b505afa158015611708573d6000803e3d6000fd5b505050506040513d601f19601f8201168201806040525061172c9190810190613544565b606461278f565b905090565b600260009054906101000a900473ffffffffffffffffffffffffffffffffffffffff1673ffffffffffffffffffffffffffffffffffffffff163373ffffffffffffffffffffffffffffffffffffffff16146117c8576040517f08c379a00000000000000000000000000000000000000000000000000000000081526004016117bf90614ad1565b60405180910390fd5b6000809054906101000a900473ffffffffffffffffffffffffffffffffffffffff1673ffffffffffffffffffffffffffffffffffffffff16630e18b6816040518163ffffffff1660e01b8152600401600060405180830381600087803b15801561183157600080fd5b505af1158015611845573d6000803e3d6000fd5b50505050565b6000809054906101000a900473ffffffffffffffffffffffffffffffffffffffff1681565b60035481565b6000611880611687565b600160009054906101000a900473ffffffffffffffffffffffffffffffffffffffff1673ffffffffffffffffffffffffffffffffffffffff1663782d6fe1336118ca43600161282e565b6040518363ffffffff1660e01b81526004016118e7929190614747565b60206040518083038186803b1580156118ff57600080fd5b505afa158015611913573d6000803e3d6000fd5b505050506040513d601f19601f820116820180604052506119379190810190613544565b11611977576040517f08c379a000000000000000000000000000000000000000000000000000000000815260040161196e90614cb1565b60405180910390fd5b84518651148015611989575083518651145b8015611996575082518651145b6119d5576040517f08c379a00000000000000000000000000000000000000000000000000000000081526004016119cc90614c11565b60405180910390fd5b600086511415611a1a576040517f08c379a0000000000000000000000000000000000000000000000000000000008152600401611a1190614c91565b60405180910390fd5b611a226114f6565b86511115611a65576040517f08c379a0000000000000000000000000000000000000000000000000000000008152600401611a5c90614bd1565b60405180910390fd5b6000600560003373ffffffffffffffffffffffffffffffffffffffff1673ffffffffffffffffffffffffffffffffffffffff16815260200190815260200160002054905060008114611b74576000611abc82610cbb565b905060016007811115611acb57fe5b816007811115611ad757fe5b1415611b18576040517f08c379a0000000000000000000000000000000000000000000000000000000008152600401611b0f90614cf1565b60405180910390fd5b60006007811115611b2557fe5b816007811115611b3157fe5b1415611b72576040517f08c379a0000000000000000000000000000000000000000000000000000000008152600401611b6990614b91565b60405180910390fd5b505b6000611b8743611b82610cb2565b6127d9565b90506000611b9c82611b976106e6565b6127d9565b9050600360008154809291906001019190505550611bb8612ac0565b604051806101a0016040528060035481526020013373ffffffffffffffffffffffffffffffffffffffff168152602001600081526020018b81526020018a815260200189815260200188815260200184815260200183815260200160008152602001600081526020016000151581526020016000151581525090508060046000836000015181526020019081526020016000206000820151816000015560208201518160010160006101000a81548173ffffffffffffffffffffffffffffffffffffffff021916908373ffffffffffffffffffffffffffffffffffffffff160217905550604082015181600201556060820151816003019080519060200190611cc2929190612b42565b506080820151816004019080519060200190611cdf929190612bcc565b5060a0820151816005019080519060200190611cfc929190612c19565b5060c0820151816006019080519060200190611d19929190612c79565b5060e082015181600701556101008201518160080155610120820151816009015561014082015181600a015561016082015181600b0160006101000a81548160ff02191690831515021790555061018082015181600b0160016101000a81548160ff021916908315150217905550905050806000015160056000836020015173ffffffffffffffffffffffffffffffffffffffff1673ffffffffffffffffffffffffffffffffffffffff168152602001908152602001600020819055507f7d84a6263ae0d98d3329bd7b46bb4e8d6f98cd35a7adb45c274c8b7fd5ebd5e08160000151338c8c8c8c89898e604051611e1999989796959493929190614dc7565b60405180910390a1806000015194505050505095945050505050565b60046007811115611e4257fe5b611e4b82610cbb565b6007811115611e5657fe5b14611e96576040517f08c379a0000000000000000000000000000000000000000000000000000000008152600401611e8d90614af1565b60405180910390fd5b60006004600083815260200190815260200160002090506000611f57426000809054906101000a900473ffffffffffffffffffffffffffffffffffffffff1673ffffffffffffffffffffffffffffffffffffffff16636a42b8f86040518163ffffffff1660e01b815260040160206040518083038186803b158015611f1a57600080fd5b505afa158015611f2e573d6000803e3d6000fd5b505050506040513d601f19601f82011682018060405250611f529190810190613544565b6127d9565b905060008090505b826003018054905081101561213c5761212f836003018281548110611f8057fe5b9060005260206000200160009054906101000a900473ffffffffffffffffffffffffffffffffffffffff16846004018381548110611fba57fe5b9060005260206000200154856005018481548110611fd457fe5b906000526020600020018054600181600116156101000203166002900480601f0160208091040260200160405190810160405280929190818152602001828054600181600116156101000203166002900480156120725780601f1061204757610100808354040283529160200191612072565b820191906000526020600020905b81548152906001019060200180831161205557829003601f168201915b505050505086600601858154811061208657fe5b906000526020600020018054600181600116156101000203166002900480601f0160208091040260200160405190810160405280929190818152602001828054600181600116156101000203166002900480156121245780601f106120f957610100808354040283529160200191612124565b820191906000526020600020905b81548152906001019060200180831161210757829003601f168201915b50505050508661288b565b8080600101915050611f5f565b508082600201819055507f9a2e42fd6722813d69113e7d0079d3d940171428df7373df9c7f7617cfda28928382604051612177929190614f04565b60405180910390a1505050565b60405161219090614717565b604051809103902081565b6121a3612cd9565b60046000848152602001908152602001600020600c0160008373ffffffffffffffffffffffffffffffffffffffff1673ffffffffffffffffffffffffffffffffffffffff1681526020019081526020016000206040518060600160405290816000820160009054906101000a900460ff161515151581526020016000820160019054906101000a900460ff16151515158152602001600182015481525050905092915050565b6005600781111561225657fe5b61225f82610cbb565b600781111561226a57fe5b146122aa576040517f08c379a00000000000000000000000000000000000000000000000000000000081526004016122a190614b11565b60405180910390fd5b6000600460008381526020019081526020016000209050600181600b0160016101000a81548160ff02191690831515021790555060008090505b816003018054905081101561245a576000809054906101000a900473ffffffffffffffffffffffffffffffffffffffff1673ffffffffffffffffffffffffffffffffffffffff16630825f38f83600401838154811061233f57fe5b906000526020600020015484600301848154811061235957fe5b9060005260206000200160009054906101000a900473ffffffffffffffffffffffffffffffffffffffff1685600401858154811061239357fe5b90600052602060002001548660050186815481106123ad57fe5b906000526020600020018760060187815481106123c657fe5b9060005260206000200188600201546040518763ffffffff1660e01b81526004016123f595949392919061489e565b6000604051808303818588803b15801561240e57600080fd5b505af1158015612422573d6000803e3d6000fd5b50505050506040513d6000823e3d601f19601f8201168201806040525061244c91908101906134da565b5080806001019150506122e4565b507f712ae1383f79ac853f8d882153778e0260ef8f03b504e2866e0593e04d2b291f8260405161248a9190614dac565b60405180910390a15050565b600160078111156124a357fe5b6124ac83610cbb565b60078111156124b757fe5b146124f7576040517f08c379a00000000000000000000000000000000000000000000000000000000081526004016124ee90614d31565b60405180910390fd5b6000600460008481526020019081526020016000209050600081600c0160008673ffffffffffffffffffffffffffffffffffffffff1673ffffffffffffffffffffffffffffffffffffffff1681526020019081526020016000209050600015158160000160009054906101000a900460ff161515146125ab576040517f08c379a00000000000000000000000000000000000000000000000000000000081526004016125a290614b71565b60405180910390fd5b6000600160009054906101000a900473ffffffffffffffffffffffffffffffffffffffff1673ffffffffffffffffffffffffffffffffffffffff1663782d6fe18785600701546040518363ffffffff1660e01b815260040161260e9291906147cf565b60206040518083038186803b15801561262657600080fd5b505afa15801561263a573d6000803e3d6000fd5b505050506040513d601f19601f8201168201806040525061265e9190810190613544565b90508315612681576126748360090154826127d9565b8360090181905550612698565b61268f83600a0154826127d9565b83600a01819055505b60018260000160006101000a81548160ff021916908315150217905550838260000160016101000a81548160ff0219169083151502179055508082600101819055507f877856338e13f63d0c36822ff0ef736b80934cd90574a3a5bc9262c39d217c468686868460405161270f94939291906147f8565b60405180910390a1505050505050565b6000808314156127325760009050612789565b600082840290508284828161274357fe5b0414612784576040517f08c379a000000000000000000000000000000000000000000000000000000000815260040161277b90614c31565b60405180910390fd5b809150505b92915050565b60006127d183836040518060400160405280601a81526020017f536166654d6174683a206469766973696f6e206279207a65726f000000000000815250612a5f565b905092915050565b600080828401905083811015612824576040517f08c379a000000000000000000000000000000000000000000000000000000000815260040161281b90614bf1565b60405180910390fd5b8091505092915050565b600082821115612873576040517f08c379a000000000000000000000000000000000000000000000000000000000815260040161286a90614d51565b60405180910390fd5b818303905092915050565b6000804690508091505090565b6000809054906101000a900473ffffffffffffffffffffffffffffffffffffffff1673ffffffffffffffffffffffffffffffffffffffff1663f2b0653786868686866040516020016128e195949392919061483d565b604051602081830303815290604052805190602001206040518263ffffffff1660e01b81526004016129139190614960565b60206040518083038186803b15801561292b57600080fd5b505afa15801561293f573d6000803e3d6000fd5b505050506040513d601f19601f820116820180604052506129639190810190613488565b156129a3576040517f08c379a000000000000000000000000000000000000000000000000000000000815260040161299a90614c71565b60405180910390fd5b6000809054906101000a900473ffffffffffffffffffffffffffffffffffffffff1673ffffffffffffffffffffffffffffffffffffffff16633a66f90186868686866040518663ffffffff1660e01b8152600401612a0595949392919061483d565b602060405180830381600087803b158015612a1f57600080fd5b505af1158015612a33573d6000803e3d6000fd5b505050506040513d601f19601f82011682018060405250612a5791908101906134b1565b505050505050565b60008083118290612aa6576040517f08c379a0000000000000000000000000000000000000000000000000000000008152600401612a9d9190614aaf565b60405180910390fd5b506000838581612ab257fe5b049050809150509392505050565b604051806101a0016040528060008152602001600073ffffffffffffffffffffffffffffffffffffffff1681526020016000815260200160608152602001606081526020016060815260200160608152602001600081526020016000815260200160008152602001600081526020016000151581526020016000151581525090565b828054828255906000526020600020908101928215612bbb579160200282015b82811115612bba5782518260006101000a81548173ffffffffffffffffffffffffffffffffffffffff021916908373ffffffffffffffffffffffffffffffffffffffff16021790555091602001919060010190612b62565b5b509050612bc89190612cfe565b5090565b828054828255906000526020600020908101928215612c08579160200282015b82811115612c07578251825591602001919060010190612bec565b5b509050612c159190612d41565b5090565b828054828255906000526020600020908101928215612c68579160200282015b82811115612c67578251829080519060200190612c57929190612d66565b5091602001919060010190612c39565b5b509050612c759190612de6565b5090565b828054828255906000526020600020908101928215612cc8579160200282015b82811115612cc7578251829080519060200190612cb7929190612e12565b5091602001919060010190612c99565b5b509050612cd59190612e92565b5090565b6040518060600160405280600015158152602001600015158152602001600081525090565b612d3e91905b80821115612d3a57600081816101000a81549073ffffffffffffffffffffffffffffffffffffffff021916905550600101612d04565b5090565b90565b612d6391905b80821115612d5f576000816000905550600101612d47565b5090565b90565b828054600181600116156101000203166002900490600052602060002090601f016020900481019282601f10612da757805160ff1916838001178555612dd5565b82800160010185558215612dd5579182015b82811115612dd4578251825591602001919060010190612db9565b5b509050612de29190612d41565b5090565b612e0f91905b80821115612e0b5760008181612e029190612ebe565b50600101612dec565b5090565b90565b828054600181600116156101000203166002900490600052602060002090601f016020900481019282601f10612e5357805160ff1916838001178555612e81565b82800160010185558215612e81579182015b82811115612e80578251825591602001919060010190612e65565b5b509050612e8e9190612d41565b5090565b612ebb91905b80821115612eb75760008181612eae9190612f06565b50600101612e98565b5090565b90565b50805460018160011615610100020316600290046000825580601f10612ee45750612f03565b601f016020900490600052602060002090810190612f029190612d41565b5b50565b50805460018160011615610100020316600290046000825580601f10612f2c5750612f4b565b601f016020900490600052602060002090810190612f4a9190612d41565b5b50565b600081359050612f5d816153b1565b92915050565b600082601f830112612f7457600080fd5b8135612f87612f8282614f5a565b614f2d565b91508181835260208401935060208101905083856020840282011115612fac57600080fd5b60005b83811015612fdc5781612fc28882612f4e565b845260208401935060208301925050600181019050612faf565b5050505092915050565b600082601f830112612ff757600080fd5b813561300a61300582614f82565b614f2d565b9150818183526020840193506020810190508360005b83811015613050578135860161303688826131a5565b845260208401935060208301925050600181019050613020565b5050505092915050565b600082601f83011261306b57600080fd5b813561307e61307982614faa565b614f2d565b9150818183526020840193506020810190508360005b838110156130c457813586016130aa888261324d565b845260208401935060208301925050600181019050613094565b5050505092915050565b600082601f8301126130df57600080fd5b81356130f26130ed82614fd2565b614f2d565b9150818183526020840193506020810190508385602084028201111561311757600080fd5b60005b83811015613147578161312d88826132f5565b84526020840193506020830192505060018101905061311a565b5050505092915050565b600081359050613160816153c8565b92915050565b600081519050613175816153c8565b92915050565b60008135905061318a816153df565b92915050565b60008151905061319f816153df565b92915050565b600082601f8301126131b657600080fd5b81356131c96131c482614ffa565b614f2d565b915080825260208301602083018583830111156131e557600080fd5b6131f0838284615347565b50505092915050565b600082601f83011261320a57600080fd5b815161321d61321882615026565b614f2d565b9150808252602083016020830185838301111561323957600080fd5b613244838284615356565b50505092915050565b600082601f83011261325e57600080fd5b813561327161326c82615052565b614f2d565b9150808252602083016020830185838301111561328d57600080fd5b613298838284615347565b50505092915050565b600082601f8301126132b257600080fd5b81356132c56132c08261507e565b614f2d565b915080825260208301602083018583830111156132e157600080fd5b6132ec838284615347565b50505092915050565b600081359050613304816153f6565b92915050565b600081519050613319816153f6565b92915050565b60008135905061332e8161540d565b92915050565b60006020828403121561334657600080fd5b600061335484828501612f4e565b91505092915050565b6000806040838503121561337057600080fd5b600061337e85828601612f4e565b925050602061338f858286016132f5565b9150509250929050565b600080600080600060a086880312156133b157600080fd5b600086013567ffffffffffffffff8111156133cb57600080fd5b6133d788828901612f63565b955050602086013567ffffffffffffffff8111156133f457600080fd5b613400888289016130ce565b945050604086013567ffffffffffffffff81111561341d57600080fd5b6134298882890161305a565b935050606086013567ffffffffffffffff81111561344657600080fd5b61345288828901612fe6565b925050608086013567ffffffffffffffff81111561346f57600080fd5b61347b888289016132a1565b9150509295509295909350565b60006020828403121561349a57600080fd5b60006134a884828501613166565b91505092915050565b6000602082840312156134c357600080fd5b60006134d184828501613190565b91505092915050565b6000602082840312156134ec57600080fd5b600082015167ffffffffffffffff81111561350657600080fd5b613512848285016131f9565b91505092915050565b60006020828403121561352d57600080fd5b600061353b848285016132f5565b91505092915050565b60006020828403121561355657600080fd5b60006135648482850161330a565b91505092915050565b6000806040838503121561358057600080fd5b600061358e858286016132f5565b925050602061359f85828601612f4e565b9150509250929050565b600080604083850312156135bc57600080fd5b60006135ca858286016132f5565b92505060206135db85828601613151565b9150509250929050565b600080600080600060a086880312156135fd57600080fd5b600061360b888289016132f5565b955050602061361c88828901613151565b945050604061362d8882890161331f565b935050606061363e8882890161317b565b925050608061364f8882890161317b565b9150509295509295909350565b600061366883836136c3565b60208301905092915050565b60006136808383613904565b905092915050565b60006136948383613a41565b905092915050565b60006136a8838361469e565b60208301905092915050565b6136bd816152a5565b82525050565b6136cc81615233565b82525050565b6136db81615233565b82525050565b60006136ec82615114565b6136f681856151a0565b9350613701836150aa565b8060005b83811015613732578151613719888261365c565b97506137248361516c565b925050600181019050613705565b5085935050505092915050565b600061374a8261511f565b61375481856151b1565b935083602082028501613766856150ba565b8060005b858110156137a257848403895281516137838582613674565b945061378e83615179565b925060208a0199505060018101905061376a565b50829750879550505050505092915050565b60006137bf8261512a565b6137c981856151c2565b9350836020820285016137db856150ca565b8060005b8581101561381757848403895281516137f88582613688565b945061380383615186565b925060208a019950506001810190506137df565b50829750879550505050505092915050565b600061383482615135565b61383e81856151d3565b9350613849836150da565b8060005b8381101561387a578151613861888261369c565b975061386c83615193565b92505060018101905061384d565b5085935050505092915050565b61389081615245565b82525050565b61389f81615245565b82525050565b6138ae81615251565b82525050565b6138c56138c082615251565b615389565b82525050565b60006138d68261514b565b6138e081856151f5565b93506138f0818560208601615356565b6138f981615393565b840191505092915050565b600061390f82615140565b61391981856151e4565b9350613929818560208601615356565b61393281615393565b840191505092915050565b60008154600181166000811461395a5760018114613980576139c4565b607f600283041661396b81876151f5565b955060ff1983168652602086019350506139c4565b6002820461398e81876151f5565b9550613999856150ea565b60005b828110156139bb5781548189015260018201915060208101905061399c565b80880195505050505b505092915050565b6139d5816152b7565b82525050565b6139e4816152db565b82525050565b6139f3816152ff565b82525050565b613a0281615311565b82525050565b6000613a1382615161565b613a1d8185615217565b9350613a2d818560208601615356565b613a3681615393565b840191505092915050565b6000613a4c82615156565b613a568185615206565b9350613a66818560208601615356565b613a6f81615393565b840191505092915050565b6000613a8582615156565b613a8f8185615217565b9350613a9f818560208601615356565b613aa881615393565b840191505092915050565b600081546001811660008114613ad05760018114613af657613b3a565b607f6002830416613ae18187615217565b955060ff198316865260208601935050613b3a565b60028204613b048187615217565b9550613b0f856150ff565b60005b82811015613b3157815481890152600182019150602081019050613b12565b80880195505050505b505092915050565b6000613b4f603983615217565b91507f476f7665726e6f72416c7068613a3a5f5f61636365707441646d696e3a20736560008301527f6e646572206d75737420626520676f7620677561726469616e000000000000006020830152604082019050919050565b6000613bb5604483615217565b91507f476f7665726e6f72416c7068613a3a71756575653a2070726f706f73616c206360008301527f616e206f6e6c792062652071756575656420696620697420697320737563636560208301527f65646564000000000000000000000000000000000000000000000000000000006040830152606082019050919050565b6000613c41604583615217565b91507f476f7665726e6f72416c7068613a3a657865637574653a2070726f706f73616c60008301527f2063616e206f6e6c79206265206578656375746564206966206974206973207160208301527f75657565640000000000000000000000000000000000000000000000000000006040830152606082019050919050565b6000613ccd600283615228565b91507f19010000000000000000000000000000000000000000000000000000000000006000830152600282019050919050565b6000613d0d604c83615217565b91507f476f7665726e6f72416c7068613a3a5f5f6578656375746553657454696d656c60008301527f6f636b50656e64696e6741646d696e3a2073656e646572206d7573742062652060208301527f676f7620677561726469616e00000000000000000000000000000000000000006040830152606082019050919050565b6000613d99601883615217565b91507f73657450656e64696e6741646d696e28616464726573732900000000000000006000830152602082019050919050565b6000613dd9602983615217565b91507f476f7665726e6f72416c7068613a3a73746174653a20696e76616c696420707260008301527f6f706f73616c20696400000000000000000000000000000000000000000000006020830152604082019050919050565b6000613e3f602d83615217565b91507f476f7665726e6f72416c7068613a3a5f63617374566f74653a20766f7465722060008301527f616c726561647920766f746564000000000000000000000000000000000000006020830152604082019050919050565b6000613ea5605983615217565b91507f476f7665726e6f72416c7068613a3a70726f706f73653a206f6e65206c69766560008301527f2070726f706f73616c207065722070726f706f7365722c20666f756e6420616e60208301527f20616c72656164792070656e64696e672070726f706f73616c000000000000006040830152606082019050919050565b6000613f31604a83615217565b91507f476f7665726e6f72416c7068613a3a5f5f717565756553657454696d656c6f6360008301527f6b50656e64696e6741646d696e3a2073656e646572206d75737420626520676f60208301527f7620677561726469616e000000000000000000000000000000000000000000006040830152606082019050919050565b6000613fbd602883615217565b91507f476f7665726e6f72416c7068613a3a70726f706f73653a20746f6f206d616e7960008301527f20616374696f6e730000000000000000000000000000000000000000000000006020830152604082019050919050565b6000614023601183615217565b91507f6164646974696f6e206f766572666c6f770000000000000000000000000000006000830152602082019050919050565b6000614063604383615228565b91507f454950373132446f6d61696e28737472696e67206e616d652c75696e7432353660008301527f20636861696e49642c6164647265737320766572696679696e67436f6e74726160208301527f63742900000000000000000000000000000000000000000000000000000000006040830152604382019050919050565b60006140ef602783615228565b91507f42616c6c6f742875696e743235362070726f706f73616c49642c626f6f6c207360008301527f7570706f727429000000000000000000000000000000000000000000000000006020830152602782019050919050565b6000614155604483615217565b91507f476f7665726e6f72416c7068613a3a70726f706f73653a2070726f706f73616c60008301527f2066756e6374696f6e20696e666f726d6174696f6e206172697479206d69736d60208301527f61746368000000000000000000000000000000000000000000000000000000006040830152606082019050919050565b60006141e1602183615217565b91507f536166654d6174683a206d756c7469706c69636174696f6e206f766572666c6f60008301527f77000000000000000000000000000000000000000000000000000000000000006020830152604082019050919050565b6000614247602f83615217565b91507f476f7665726e6f72416c7068613a3a63616e63656c3a2070726f706f7365722060008301527f61626f7665207468726573686f6c6400000000000000000000000000000000006020830152604082019050919050565b60006142ad604483615217565b91507f476f7665726e6f72416c7068613a3a5f71756575654f725265766572743a207060008301527f726f706f73616c20616374696f6e20616c72656164792071756575656420617460208301527f20657461000000000000000000000000000000000000000000000000000000006040830152606082019050919050565b6000614339602c83615217565b91507f476f7665726e6f72416c7068613a3a70726f706f73653a206d7573742070726f60008301527f7669646520616374696f6e7300000000000000000000000000000000000000006020830152604082019050919050565b600061439f603f83615217565b91507f476f7665726e6f72416c7068613a3a70726f706f73653a2070726f706f73657260008301527f20766f7465732062656c6f772070726f706f73616c207468726573686f6c64006020830152604082019050919050565b6000614405602f83615217565b91507f476f7665726e6f72416c7068613a3a63617374566f746542795369673a20696e60008301527f76616c6964207369676e617475726500000000000000000000000000000000006020830152604082019050919050565b600061446b605883615217565b91507f476f7665726e6f72416c7068613a3a70726f706f73653a206f6e65206c69766560008301527f2070726f706f73616c207065722070726f706f7365722c20666f756e6420616e60208301527f20616c7265616479206163746976652070726f706f73616c00000000000000006040830152606082019050919050565b60006144f7603683615217565b91507f476f7665726e6f72416c7068613a3a63616e63656c3a2063616e6e6f7420636160008301527f6e63656c2065786563757465642070726f706f73616c000000000000000000006020830152604082019050919050565b600061455d602a83615217565b91507f476f7665726e6f72416c7068613a3a5f63617374566f74653a20766f74696e6760008301527f20697320636c6f736564000000000000000000000000000000000000000000006020830152604082019050919050565b60006145c3601583615217565b91507f7375627472616374696f6e20756e646572666c6f7700000000000000000000006000830152602082019050919050565b6000614603603683615217565b91507f476f7665726e6f72416c7068613a3a5f5f61626469636174653a2073656e646560008301527f72206d75737420626520676f7620677561726469616e000000000000000000006020830152604082019050919050565b6060820160008201516146726000850182613887565b5060208201516146856020850182613887565b506040820151614698604085018261469e565b50505050565b6146a78161528e565b82525050565b6146b68161528e565b82525050565b6146c581615298565b82525050565b60006146d682613cc0565b91506146e282856138b4565b6020820191506146f282846138b4565b6020820191508190509392505050565b600061470d82614056565b9150819050919050565b6000614722826140e2565b9150819050919050565b600060208201905061474160008301846136d2565b92915050565b600060408201905061475c60008301856136b4565b61476960208301846146ad565b9392505050565b600060a08201905061478560008301876136d2565b61479260208301866139f9565b81810360408301526147a381613d8c565b905081810360608301526147b781856138cb565b90506147c660808301846146ad565b95945050505050565b60006040820190506147e460008301856136d2565b6147f160208301846146ad565b9392505050565b600060808201905061480d60008301876136d2565b61481a60208301866146ad565b6148276040830185613896565b61483460608301846146ad565b95945050505050565b600060a08201905061485260008301886136d2565b61485f60208301876146ad565b81810360408301526148718186613a08565b9050818103606083015261488581856138cb565b905061489460808301846146ad565b9695505050505050565b600060a0820190506148b360008301886136d2565b6148c060208301876146ad565b81810360408301526148d28186613ab3565b905081810360608301526148e6818561393d565b90506148f560808301846146ad565b9695505050505050565b6000608082019050818103600083015261491981876136e1565b9050818103602083015261492d8186613829565b9050818103604083015261494181856137b4565b90508181036060830152614955818461373f565b905095945050505050565b600060208201905061497560008301846138a5565b92915050565b600060808201905061499060008301876138a5565b61499d60208301866138a5565b6149aa60408301856146ad565b6149b760608301846136d2565b95945050505050565b60006060820190506149d560008301866138a5565b6149e260208301856146ad565b6149ef6040830184613896565b949350505050565b6000608082019050614a0c60008301876138a5565b614a1960208301866146bc565b614a2660408301856138a5565b614a3360608301846138a5565b95945050505050565b6000602082019050614a5160008301846139cc565b92915050565b6000602082019050614a6c60008301846139db565b92915050565b6000602082019050614a8760008301846139ea565b92915050565b60006020820190508181036000830152614aa78184613a7a565b905092915050565b60006020820190508181036000830152614ac98184613a08565b905092915050565b60006020820190508181036000830152614aea81613b42565b9050919050565b60006020820190508181036000830152614b0a81613ba8565b9050919050565b60006020820190508181036000830152614b2a81613c34565b9050919050565b60006020820190508181036000830152614b4a81613d00565b9050919050565b60006020820190508181036000830152614b6a81613dcc565b9050919050565b60006020820190508181036000830152614b8a81613e32565b9050919050565b60006020820190508181036000830152614baa81613e98565b9050919050565b60006020820190508181036000830152614bca81613f24565b9050919050565b60006020820190508181036000830152614bea81613fb0565b9050919050565b60006020820190508181036000830152614c0a81614016565b9050919050565b60006020820190508181036000830152614c2a81614148565b9050919050565b60006020820190508181036000830152614c4a816141d4565b9050919050565b60006020820190508181036000830152614c6a8161423a565b9050919050565b60006020820190508181036000830152614c8a816142a0565b9050919050565b60006020820190508181036000830152614caa8161432c565b9050919050565b60006020820190508181036000830152614cca81614392565b9050919050565b60006020820190508181036000830152614cea816143f8565b9050919050565b60006020820190508181036000830152614d0a8161445e565b9050919050565b60006020820190508181036000830152614d2a816144ea565b9050919050565b60006020820190508181036000830152614d4a81614550565b9050919050565b60006020820190508181036000830152614d6a816145b6565b9050919050565b60006020820190508181036000830152614d8a816145f6565b9050919050565b6000606082019050614da6600083018461465c565b92915050565b6000602082019050614dc160008301846146ad565b92915050565b600061012082019050614ddd600083018c6146ad565b614dea602083018b6136b4565b8181036040830152614dfc818a6136e1565b90508181036060830152614e108189613829565b90508181036080830152614e2481886137b4565b905081810360a0830152614e38818761373f565b9050614e4760c08301866146ad565b614e5460e08301856146ad565b818103610100830152614e678184613a08565b90509a9950505050505050505050565b600061012082019050614e8d600083018c6146ad565b614e9a602083018b6136d2565b614ea7604083018a6146ad565b614eb460608301896146ad565b614ec160808301886146ad565b614ece60a08301876146ad565b614edb60c08301866146ad565b614ee860e0830185613896565b614ef6610100830184613896565b9a9950505050505050505050565b6000604082019050614f1960008301856146ad565b614f2660208301846146ad565b9392505050565b6000604051905081810181811067ffffffffffffffff82111715614f5057600080fd5b8060405250919050565b600067ffffffffffffffff821115614f7157600080fd5b602082029050602081019050919050565b600067ffffffffffffffff821115614f9957600080fd5b602082029050602081019050919050565b600067ffffffffffffffff821115614fc157600080fd5b602082029050602081019050919050565b600067ffffffffffffffff821115614fe957600080fd5b602082029050602081019050919050565b600067ffffffffffffffff82111561501157600080fd5b601f19601f8301169050602081019050919050565b600067ffffffffffffffff82111561503d57600080fd5b601f19601f8301169050602081019050919050565b600067ffffffffffffffff82111561506957600080fd5b601f19601f8301169050602081019050919050565b600067ffffffffffffffff82111561509557600080fd5b601f19601f8301169050602081019050919050565b6000819050602082019050919050565b6000819050602082019050919050565b6000819050602082019050919050565b6000819050602082019050919050565b60008190508160005260206000209050919050565b60008190508160005260206000209050919050565b600081519050919050565b600081519050919050565b600081519050919050565b600081519050919050565b600081519050919050565b600081519050919050565b600081519050919050565b600081519050919050565b6000602082019050919050565b6000602082019050919050565b6000602082019050919050565b6000602082019050919050565b600082825260208201905092915050565b600082825260208201905092915050565b600082825260208201905092915050565b600082825260208201905092915050565b600082825260208201905092915050565b600082825260208201905092915050565b600082825260208201905092915050565b600082825260208201905092915050565b600081905092915050565b600061523e8261526e565b9050919050565b60008115159050919050565b6000819050919050565b6000819050615269826153a4565b919050565b600073ffffffffffffffffffffffffffffffffffffffff82169050919050565b6000819050919050565b600060ff82169050919050565b60006152b082615323565b9050919050565b60006152c2826152c9565b9050919050565b60006152d48261526e565b9050919050565b60006152e6826152ed565b9050919050565b60006152f88261526e565b9050919050565b600061530a8261525b565b9050919050565b600061531c8261528e565b9050919050565b600061532e82615335565b9050919050565b60006153408261526e565b9050919050565b82818337600083830152505050565b60005b83811015615374578082015181840152602081019050615359565b83811115615383576000848401525b50505050565b6000819050919050565b6000601f19601f8301169050919050565b600881106153ae57fe5b50565b6153ba81615233565b81146153c557600080fd5b50565b6153d181615245565b81146153dc57600080fd5b50565b6153e881615251565b81146153f357600080fd5b50565b6153ff8161528e565b811461540a57600080fd5b50565b61541681615298565b811461542157600080fd5b5056fea365627a7a72315820d6352fb781808681a04d755cb120037922f771842722988157330b916e0ba58d6c6578706572696d656e74616cf564736f6c63430005110040",
  "source": "pragma solidity ^0.5.17;\npragma experimental ABIEncoderV2;\n\n// Original work from Compound: https://github.com/compound-finance/compound-protocol/blob/master/contracts/Governance/GovernorAlpha.sol\n// Modified to work in the YAM system\n\n// all votes work on underlying _yamBalances[address], not balanceOf(address)\n\n// Original audit: https://blog.openzeppelin.com/compound-alpha-governance-system-audit/\n// Overview:\n//    No Critical\n//    High:\n//      Issue:\n//        Approved proposal may be impossible to queue, cancel or execute\n//        Fixed with `proposalMaxOperations`\n//      Issue:\n//        Queued proposal with repeated actions cannot be executed\n//        Fixed by explicitly disallow proposals with repeated actions to be queued in the Timelock contract.\n//\n// Changes made by YAM after audit:\n//    Formatting, naming, & uint256 instead of uint\n//    Since YAM supply changes, updated quorum & proposal requirements\n//    If any uint96, changed to uint256 to match YAM as opposed to comp\n\n\nimport \"../lib/SafeMath.sol\";\n\ncontract GovernorAlpha {\n    /// @notice The name of this contract\n    string public constant name = \"YAM Governor Alpha\";\n\n    /// @notice The number of votes in support of a proposal required in order for a quorum to be reached and for a vote to succeed\n    function quorumVotes() public view returns (uint256) { return SafeMath.div(SafeMath.mul(yam.initSupply(), 4), 100); } // 4% of YAM\n\n    /// @notice The number of votes required in order for a voter to become a proposer\n    function proposalThreshold() public view returns (uint256) { return SafeMath.div(yam.initSupply(), 100); } // 1% of YAM\n\n    /// @notice The maximum number of actions that can be included in a proposal\n    function proposalMaxOperations() public pure returns (uint256) { return 10; } // 10 actions\n\n    /// @notice The delay before voting on a proposal may take place, once proposed\n    function votingDelay() public pure returns (uint256) { return 1; } // 1 block\n\n    /// @notice The duration of voting on a proposal, in blocks\n    function votingPeriod() public pure returns (uint256) { return 17280; } // ~3 days in blocks (assuming 15s blocks)\n\n    /// @notice The address of the Compound Protocol Timelock\n    TimelockInterface public timelock;\n\n    /// @notice The address of the Compound governance token\n    YAMInterface public yam;\n\n    /// @notice The address of the Governor Guardian\n    address public guardian;\n\n    /// @notice The total number of proposals\n    uint256 public proposalCount;\n\n    struct Proposal {\n        /// @notice Unique id for looking up a proposal\n        uint256 id;\n\n        /// @notice Creator of the proposal\n        address proposer;\n\n        /// @notice The timestamp that the proposal will be available for execution, set once the vote succeeds\n        uint256 eta;\n\n        /// @notice the ordered list of target addresses for calls to be made\n        address[] targets;\n\n        /// @notice The ordered list of values (i.e. msg.value) to be passed to the calls to be made\n        uint[] values;\n\n        /// @notice The ordered list of function signatures to be called\n        string[] signatures;\n\n        /// @notice The ordered list of calldata to be passed to each call\n        bytes[] calldatas;\n\n        /// @notice The block at which voting begins: holders must delegate their votes prior to this block\n        uint256 startBlock;\n\n        /// @notice The block at which voting ends: votes must be cast prior to this block\n        uint256 endBlock;\n\n        /// @notice Current number of votes in favor of this proposal\n        uint256 forVotes;\n\n        /// @notice Current number of votes in opposition to this proposal\n        uint256 againstVotes;\n\n        /// @notice Flag marking whether the proposal has been canceled\n        bool canceled;\n\n        /// @notice Flag marking whether the proposal has been executed\n        bool executed;\n\n        /// @notice Receipts of ballots for the entire set of voters\n        mapping (address => Receipt) receipts;\n    }\n\n    /// @notice Ballot receipt record for a voter\n    struct Receipt {\n        /// @notice Whether or not a vote has been cast\n        bool hasVoted;\n\n        /// @notice Whether or not the voter supports the proposal\n        bool support;\n\n        /// @notice The number of votes the voter had, which were cast\n        uint256 votes;\n    }\n\n    /// @notice Possible states that a proposal may be in\n    enum ProposalState {\n        Pending,\n        Active,\n        Canceled,\n        Defeated,\n        Succeeded,\n        Queued,\n        Expired,\n        Executed\n    }\n\n    /// @notice The official record of all proposals ever proposed\n    mapping (uint256 => Proposal) public proposals;\n\n    /// @notice The latest proposal for each proposer\n    mapping (address => uint256) public latestProposalIds;\n\n    /// @notice The EIP-712 typehash for the contract's domain\n    bytes32 public constant DOMAIN_TYPEHASH = keccak256(\"EIP712Domain(string name,uint256 chainId,address verifyingContract)\");\n\n    /// @notice The EIP-712 typehash for the ballot struct used by the contract\n    bytes32 public constant BALLOT_TYPEHASH = keccak256(\"Ballot(uint256 proposalId,bool support)\");\n\n    /// @notice An event emitted when a new proposal is created\n    event ProposalCreated(uint256 id, address proposer, address[] targets, uint[] values, string[] signatures, bytes[] calldatas, uint256 startBlock, uint256 endBlock, string description);\n\n    /// @notice An event emitted when a vote has been cast on a proposal\n    event VoteCast(address voter, uint256 proposalId, bool support, uint256 votes);\n\n    /// @notice An event emitted when a proposal has been canceled\n    event ProposalCanceled(uint256 id);\n\n    /// @notice An event emitted when a proposal has been queued in the Timelock\n    event ProposalQueued(uint256 id, uint256 eta);\n\n    /// @notice An event emitted when a proposal has been executed in the Timelock\n    event ProposalExecuted(uint256 id);\n\n    constructor(address timelock_, address yam_) public {\n        timelock = TimelockInterface(timelock_);\n        yam = YAMInterface(yam_);\n        guardian = msg.sender;\n    }\n\n    function propose(\n        address[] memory targets,\n        uint[] memory values,\n        string[] memory signatures,\n        bytes[] memory calldatas,\n        string memory description\n    )\n        public\n        returns (uint256)\n    {\n        require(yam.getPriorVotes(msg.sender, sub256(block.number, 1)) > proposalThreshold(), \"GovernorAlpha::propose: proposer votes below proposal threshold\");\n        require(targets.length == values.length && targets.length == signatures.length && targets.length == calldatas.length, \"GovernorAlpha::propose: proposal function information arity mismatch\");\n        require(targets.length != 0, \"GovernorAlpha::propose: must provide actions\");\n        require(targets.length <= proposalMaxOperations(), \"GovernorAlpha::propose: too many actions\");\n\n        uint256 latestProposalId = latestProposalIds[msg.sender];\n        if (latestProposalId != 0) {\n          ProposalState proposersLatestProposalState = state(latestProposalId);\n          require(proposersLatestProposalState != ProposalState.Active, \"GovernorAlpha::propose: one live proposal per proposer, found an already active proposal\");\n          require(proposersLatestProposalState != ProposalState.Pending, \"GovernorAlpha::propose: one live proposal per proposer, found an already pending proposal\");\n        }\n\n        uint256 startBlock = add256(block.number, votingDelay());\n        uint256 endBlock = add256(startBlock, votingPeriod());\n\n        proposalCount++;\n        Proposal memory newProposal = Proposal({\n            id: proposalCount,\n            proposer: msg.sender,\n            eta: 0,\n            targets: targets,\n            values: values,\n            signatures: signatures,\n            calldatas: calldatas,\n            startBlock: startBlock,\n            endBlock: endBlock,\n            forVotes: 0,\n            againstVotes: 0,\n            canceled: false,\n            executed: false\n        });\n\n        proposals[newProposal.id] = newProposal;\n        latestProposalIds[newProposal.proposer] = newProposal.id;\n\n        emit ProposalCreated(\n            newProposal.id,\n            msg.sender,\n            targets,\n            values,\n            signatures,\n            calldatas,\n            startBlock,\n            endBlock,\n            description\n        );\n        return newProposal.id;\n    }\n\n    function queue(uint256 proposalId)\n        public\n    {\n        require(state(proposalId) == ProposalState.Succeeded, \"GovernorAlpha::queue: proposal can only be queued if it is succeeded\");\n        Proposal storage proposal = proposals[proposalId];\n        uint256 eta = add256(block.timestamp, timelock.delay());\n        for (uint256 i = 0; i < proposal.targets.length; i++) {\n            _queueOrRevert(\n                proposal.targets[i],\n                proposal.values[i],\n                proposal.signatures[i],\n                proposal.calldatas[i],\n                eta\n            );\n        }\n        proposal.eta = eta;\n        emit ProposalQueued(proposalId, eta);\n    }\n\n    function _queueOrRevert(\n        address target,\n        uint256 value,\n        string memory signature,\n        bytes memory data,\n        uint256 eta\n    )\n        internal\n    {\n        require(!timelock.queuedTransactions(\n              keccak256(\n                  abi.encode(\n                      target,\n                      value,\n                      signature,\n                      data,\n                      eta\n                  )\n              )\n          ),\n          \"GovernorAlpha::_queueOrRevert: proposal action already queued at eta\"\n        );\n\n        timelock.queueTransaction(target, value, signature, data, eta);\n    }\n\n    function execute(uint256 proposalId)\n        public\n        payable\n    {\n        require(state(proposalId) == ProposalState.Queued, \"GovernorAlpha::execute: proposal can only be executed if it is queued\");\n        Proposal storage proposal = proposals[proposalId];\n        proposal.executed = true;\n        for (uint256 i = 0; i < proposal.targets.length; i++) {\n            timelock.executeTransaction.value(proposal.values[i])(proposal.targets[i], proposal.values[i], proposal.signatures[i], proposal.calldatas[i], proposal.eta);\n        }\n        emit ProposalExecuted(proposalId);\n    }\n\n    function cancel(uint256 proposalId)\n        public\n    {\n        ProposalState state = state(proposalId);\n        require(state != ProposalState.Executed, \"GovernorAlpha::cancel: cannot cancel executed proposal\");\n\n        Proposal storage proposal = proposals[proposalId];\n        require(msg.sender == guardian || yam.getPriorVotes(proposal.proposer, sub256(block.number, 1)) < proposalThreshold(), \"GovernorAlpha::cancel: proposer above threshold\");\n\n        proposal.canceled = true;\n        for (uint256 i = 0; i < proposal.targets.length; i++) {\n            timelock.cancelTransaction(proposal.targets[i], proposal.values[i], proposal.signatures[i], proposal.calldatas[i], proposal.eta);\n        }\n\n        emit ProposalCanceled(proposalId);\n    }\n\n    function getActions(uint256 proposalId)\n        public\n        view\n        returns (\n            address[] memory targets,\n            uint[] memory values,\n            string[] memory signatures,\n            bytes[] memory calldatas\n        )\n    {\n        Proposal storage p = proposals[proposalId];\n        return (p.targets, p.values, p.signatures, p.calldatas);\n    }\n\n    function getReceipt(uint256 proposalId, address voter)\n        public\n        view\n        returns (Receipt memory)\n    {\n        return proposals[proposalId].receipts[voter];\n    }\n\n    function state(uint256 proposalId)\n        public\n        view\n        returns (ProposalState)\n    {\n        require(proposalCount >= proposalId && proposalId > 0, \"GovernorAlpha::state: invalid proposal id\");\n        Proposal storage proposal = proposals[proposalId];\n        if (proposal.canceled) {\n            return ProposalState.Canceled;\n        } else if (block.number <= proposal.startBlock) {\n            return ProposalState.Pending;\n        } else if (block.number <= proposal.endBlock) {\n            return ProposalState.Active;\n        } else if (proposal.forVotes <= proposal.againstVotes || proposal.forVotes < quorumVotes()) {\n            return ProposalState.Defeated;\n        } else if (proposal.eta == 0) {\n            return ProposalState.Succeeded;\n        } else if (proposal.executed) {\n            return ProposalState.Executed;\n        } else if (block.timestamp >= add256(proposal.eta, timelock.GRACE_PERIOD())) {\n            return ProposalState.Expired;\n        } else {\n            return ProposalState.Queued;\n        }\n    }\n\n    function castVote(uint256 proposalId, bool support)\n        public\n    {\n        return _castVote(msg.sender, proposalId, support);\n    }\n\n    function castVoteBySig(\n        uint256 proposalId,\n        bool support,\n        uint8 v,\n        bytes32 r,\n        bytes32 s\n    )\n        public\n    {\n        bytes32 domainSeparator = keccak256(\n            abi.encode(\n                DOMAIN_TYPEHASH,\n                keccak256(bytes(name)),\n                getChainId(),\n                address(this)\n            )\n        );\n\n        bytes32 structHash = keccak256(\n            abi.encode(\n                BALLOT_TYPEHASH,\n                proposalId,\n                support\n            )\n        );\n\n        bytes32 digest = keccak256(\n            abi.encodePacked(\n                \"\\x19\\x01\",\n                domainSeparator,\n                structHash\n            )\n        );\n\n        address signatory = ecrecover(digest, v, r, s);\n        require(signatory != address(0), \"GovernorAlpha::castVoteBySig: invalid signature\");\n        return _castVote(signatory, proposalId, support);\n    }\n\n    function _castVote(\n        address voter,\n        uint256 proposalId,\n        bool support\n    )\n        internal\n    {\n        require(state(proposalId) == ProposalState.Active, \"GovernorAlpha::_castVote: voting is closed\");\n        Proposal storage proposal = proposals[proposalId];\n        Receipt storage receipt = proposal.receipts[voter];\n        require(receipt.hasVoted == false, \"GovernorAlpha::_castVote: voter already voted\");\n        uint256 votes = yam.getPriorVotes(voter, proposal.startBlock);\n\n        if (support) {\n            proposal.forVotes = add256(proposal.forVotes, votes);\n        } else {\n            proposal.againstVotes = add256(proposal.againstVotes, votes);\n        }\n\n        receipt.hasVoted = true;\n        receipt.support = support;\n        receipt.votes = votes;\n\n        emit VoteCast(voter, proposalId, support, votes);\n    }\n\n    function __acceptAdmin()\n        public\n    {\n        require(msg.sender == guardian, \"GovernorAlpha::__acceptAdmin: sender must be gov guardian\");\n        timelock.acceptAdmin();\n    }\n\n    function __abdicate()\n        public\n    {\n        require(msg.sender == guardian, \"GovernorAlpha::__abdicate: sender must be gov guardian\");\n        guardian = address(0);\n    }\n\n    function __queueSetTimelockPendingAdmin(\n        address newPendingAdmin,\n        uint256 eta\n    )\n        public\n    {\n        require(msg.sender == guardian, \"GovernorAlpha::__queueSetTimelockPendingAdmin: sender must be gov guardian\");\n        timelock.queueTransaction(address(timelock), 0, \"setPendingAdmin(address)\", abi.encode(newPendingAdmin), eta);\n    }\n\n    function __executeSetTimelockPendingAdmin(\n        address newPendingAdmin,\n        uint256 eta\n    )\n        public\n    {\n        require(msg.sender == guardian, \"GovernorAlpha::__executeSetTimelockPendingAdmin: sender must be gov guardian\");\n        timelock.executeTransaction(address(timelock), 0, \"setPendingAdmin(address)\", abi.encode(newPendingAdmin), eta);\n    }\n\n    function add256(uint256 a, uint256 b) internal pure returns (uint256) {\n        uint256 c = a + b;\n        require(c >= a, \"addition overflow\");\n        return c;\n    }\n\n    function sub256(uint256 a, uint256 b) internal pure returns (uint256) {\n        require(b <= a, \"subtraction underflow\");\n        return a - b;\n    }\n\n    function getChainId() internal pure returns (uint256) {\n        uint256 chainId;\n        assembly { chainId := chainid() }\n        return chainId;\n    }\n}\n\ninterface TimelockInterface {\n    function delay() external view returns (uint256);\n    function GRACE_PERIOD() external view returns (uint256);\n    function acceptAdmin() external;\n    function queuedTransactions(bytes32 hash) external view returns (bool);\n    function queueTransaction(address target, uint256 value, string calldata signature, bytes calldata data, uint256 eta) external returns (bytes32);\n    function cancelTransaction(address target, uint256 value, string calldata signature, bytes calldata data, uint256 eta) external;\n    function executeTransaction(address target, uint256 value, string calldata signature, bytes calldata data, uint256 eta) external payable returns (bytes memory);\n}\n\ninterface YAMInterface {\n    function getPriorVotes(address account, uint256 blockNumber) external view returns (uint256);\n    function initSupply() external view returns (uint256);\n    function _acceptGov() external;\n}\n",
  "sourcePath": "/Users/minakokojima/Documents/GitHub/my-yam-protocol/contracts/governance/YAMGovernorAlpha.sol",
  "compiler": {
    "name": "solc",
    "version": "0.5.17+commit.d19bba13.Emscripten.clang"
  },
  "schemaVersion": "3.2.0",
  "updatedAt": "2020-08-16T00:44:50.001Z",
  "networkType": "ethereum",
  "devdoc": {
    "methods": {}
  },
  "userdoc": {
    "methods": {
      "proposalMaxOperations()": {
        "notice": "The maximum number of actions that can be included in a proposal"
      },
      "proposalThreshold()": {
        "notice": "The number of votes required in order for a voter to become a proposer"
      },
      "quorumVotes()": {
        "notice": "The number of votes in support of a proposal required in order for a quorum to be reached and for a vote to succeed"
      },
      "votingDelay()": {
        "notice": "The delay before voting on a proposal may take place, once proposed"
      },
      "votingPeriod()": {
        "notice": "The duration of voting on a proposal, in blocks"
      }
    }
  }
}