{
  "contractName": "YAMDelegator",
  "abi": [
    {
      "inputs": [
        {
          "internalType": "string",
          "name": "name_",
          "type": "string"
        },
        {
          "internalType": "string",
          "name": "symbol_",
          "type": "string"
        },
        {
          "internalType": "uint8",
          "name": "decimals_",
          "type": "uint8"
        },
        {
          "internalType": "uint256",
          "name": "initSupply_",
          "type": "uint256"
        },
        {
          "internalType": "address",
          "name": "implementation_",
          "type": "address"
        },
        {
          "internalType": "bytes",
          "name": "becomeImplementationData",
          "type": "bytes"
        }
      ],
      "payable": false,
      "stateMutability": "nonpayable",
      "type": "constructor"
    },
    {
      "anonymous": false,
      "inputs": [
        {
          "indexed": true,
          "internalType": "address",
          "name": "owner",
          "type": "address"
        },
        {
          "indexed": true,
          "internalType": "address",
          "name": "spender",
          "type": "address"
        },
        {
          "indexed": false,
          "internalType": "uint256",
          "name": "amount",
          "type": "uint256"
        }
      ],
      "name": "Approval",
      "type": "event"
    },
    {
      "anonymous": false,
      "inputs": [
        {
          "indexed": true,
          "internalType": "address",
          "name": "delegator",
          "type": "address"
        },
        {
          "indexed": true,
          "internalType": "address",
          "name": "fromDelegate",
          "type": "address"
        },
        {
          "indexed": true,
          "internalType": "address",
          "name": "toDelegate",
          "type": "address"
        }
      ],
      "name": "DelegateChanged",
      "type": "event"
    },
    {
      "anonymous": false,
      "inputs": [
        {
          "indexed": true,
          "internalType": "address",
          "name": "delegate",
          "type": "address"
        },
        {
          "indexed": false,
          "internalType": "uint256",
          "name": "previousBalance",
          "type": "uint256"
        },
        {
          "indexed": false,
          "internalType": "uint256",
          "name": "newBalance",
          "type": "uint256"
        }
      ],
      "name": "DelegateVotesChanged",
      "type": "event"
    },
    {
      "anonymous": false,
      "inputs": [
        {
          "indexed": false,
          "internalType": "address",
          "name": "to",
          "type": "address"
        },
        {
          "indexed": false,
          "internalType": "uint256",
          "name": "amount",
          "type": "uint256"
        }
      ],
      "name": "Mint",
      "type": "event"
    },
    {
      "anonymous": false,
      "inputs": [
        {
          "indexed": false,
          "internalType": "address",
          "name": "oldGov",
          "type": "address"
        },
        {
          "indexed": false,
          "internalType": "address",
          "name": "newGov",
          "type": "address"
        }
      ],
      "name": "NewGov",
      "type": "event"
    },
    {
      "anonymous": false,
      "inputs": [
        {
          "indexed": false,
          "internalType": "address",
          "name": "oldImplementation",
          "type": "address"
        },
        {
          "indexed": false,
          "internalType": "address",
          "name": "newImplementation",
          "type": "address"
        }
      ],
      "name": "NewImplementation",
      "type": "event"
    },
    {
      "anonymous": false,
      "inputs": [
        {
          "indexed": false,
          "internalType": "address",
          "name": "oldIncentivizer",
          "type": "address"
        },
        {
          "indexed": false,
          "internalType": "address",
          "name": "newIncentivizer",
          "type": "address"
        }
      ],
      "name": "NewIncentivizer",
      "type": "event"
    },
    {
      "anonymous": false,
      "inputs": [
        {
          "indexed": false,
          "internalType": "address",
          "name": "oldPendingGov",
          "type": "address"
        },
        {
          "indexed": false,
          "internalType": "address",
          "name": "newPendingGov",
          "type": "address"
        }
      ],
      "name": "NewPendingGov",
      "type": "event"
    },
    {
      "anonymous": false,
      "inputs": [
        {
          "indexed": false,
          "internalType": "address",
          "name": "oldRebaser",
          "type": "address"
        },
        {
          "indexed": false,
          "internalType": "address",
          "name": "newRebaser",
          "type": "address"
        }
      ],
      "name": "NewRebaser",
      "type": "event"
    },
    {
      "anonymous": false,
      "inputs": [
        {
          "indexed": false,
          "internalType": "uint256",
          "name": "epoch",
          "type": "uint256"
        },
        {
          "indexed": false,
          "internalType": "uint256",
          "name": "prevYamsScalingFactor",
          "type": "uint256"
        },
        {
          "indexed": false,
          "internalType": "uint256",
          "name": "newYamsScalingFactor",
          "type": "uint256"
        }
      ],
      "name": "Rebase",
      "type": "event"
    },
    {
      "anonymous": false,
      "inputs": [
        {
          "indexed": true,
          "internalType": "address",
          "name": "from",
          "type": "address"
        },
        {
          "indexed": true,
          "internalType": "address",
          "name": "to",
          "type": "address"
        },
        {
          "indexed": false,
          "internalType": "uint256",
          "name": "amount",
          "type": "uint256"
        }
      ],
      "name": "Transfer",
      "type": "event"
    },
    {
      "payable": true,
      "stateMutability": "payable",
      "type": "fallback"
    },
    {
      "constant": true,
      "inputs": [],
      "name": "BASE",
      "outputs": [
        {
          "internalType": "uint256",
          "name": "",
          "type": "uint256"
        }
      ],
      "payable": false,
      "stateMutability": "view",
      "type": "function"
    },
    {
      "constant": true,
      "inputs": [],
      "name": "DELEGATION_TYPEHASH",
      "outputs": [
        {
          "internalType": "bytes32",
          "name": "",
          "type": "bytes32"
        }
      ],
      "payable": false,
      "stateMutability": "view",
      "type": "function"
    },
    {
      "constant": true,
      "inputs": [],
      "name": "DOMAIN_TYPEHASH",
      "outputs": [
        {
          "internalType": "bytes32",
          "name": "",
          "type": "bytes32"
        }
      ],
      "payable": false,
      "stateMutability": "view",
      "type": "function"
    },
    {
      "constant": true,
      "inputs": [
        {
          "internalType": "address",
          "name": "",
          "type": "address"
        },
        {
          "internalType": "uint32",
          "name": "",
          "type": "uint32"
        }
      ],
      "name": "checkpoints",
      "outputs": [
        {
          "internalType": "uint32",
          "name": "fromBlock",
          "type": "uint32"
        },
        {
          "internalType": "uint256",
          "name": "votes",
          "type": "uint256"
        }
      ],
      "payable": false,
      "stateMutability": "view",
      "type": "function"
    },
    {
      "constant": true,
      "inputs": [],
      "name": "decimals",
      "outputs": [
        {
          "internalType": "uint8",
          "name": "",
          "type": "uint8"
        }
      ],
      "payable": false,
      "stateMutability": "view",
      "type": "function"
    },
    {
      "constant": true,
      "inputs": [],
      "name": "gov",
      "outputs": [
        {
          "internalType": "address",
          "name": "",
          "type": "address"
        }
      ],
      "payable": false,
      "stateMutability": "view",
      "type": "function"
    },
    {
      "constant": true,
      "inputs": [],
      "name": "implementation",
      "outputs": [
        {
          "internalType": "address",
          "name": "",
          "type": "address"
        }
      ],
      "payable": false,
      "stateMutability": "view",
      "type": "function"
    },
    {
      "constant": true,
      "inputs": [],
      "name": "incentivizer",
      "outputs": [
        {
          "internalType": "address",
          "name": "",
          "type": "address"
        }
      ],
      "payable": false,
      "stateMutability": "view",
      "type": "function"
    },
    {
      "constant": true,
      "inputs": [],
      "name": "initSupply",
      "outputs": [
        {
          "internalType": "uint256",
          "name": "",
          "type": "uint256"
        }
      ],
      "payable": false,
      "stateMutability": "view",
      "type": "function"
    },
    {
      "constant": true,
      "inputs": [],
      "name": "internalDecimals",
      "outputs": [
        {
          "internalType": "uint256",
          "name": "",
          "type": "uint256"
        }
      ],
      "payable": false,
      "stateMutability": "view",
      "type": "function"
    },
    {
      "constant": true,
      "inputs": [],
      "name": "name",
      "outputs": [
        {
          "internalType": "string",
          "name": "",
          "type": "string"
        }
      ],
      "payable": false,
      "stateMutability": "view",
      "type": "function"
    },
    {
      "constant": true,
      "inputs": [
        {
          "internalType": "address",
          "name": "",
          "type": "address"
        }
      ],
      "name": "nonces",
      "outputs": [
        {
          "internalType": "uint256",
          "name": "",
          "type": "uint256"
        }
      ],
      "payable": false,
      "stateMutability": "view",
      "type": "function"
    },
    {
      "constant": true,
      "inputs": [
        {
          "internalType": "address",
          "name": "",
          "type": "address"
        }
      ],
      "name": "numCheckpoints",
      "outputs": [
        {
          "internalType": "uint32",
          "name": "",
          "type": "uint32"
        }
      ],
      "payable": false,
      "stateMutability": "view",
      "type": "function"
    },
    {
      "constant": true,
      "inputs": [],
      "name": "pendingGov",
      "outputs": [
        {
          "internalType": "address",
          "name": "",
          "type": "address"
        }
      ],
      "payable": false,
      "stateMutability": "view",
      "type": "function"
    },
    {
      "constant": true,
      "inputs": [],
      "name": "rebaser",
      "outputs": [
        {
          "internalType": "address",
          "name": "",
          "type": "address"
        }
      ],
      "payable": false,
      "stateMutability": "view",
      "type": "function"
    },
    {
      "constant": true,
      "inputs": [],
      "name": "symbol",
      "outputs": [
        {
          "internalType": "string",
          "name": "",
          "type": "string"
        }
      ],
      "payable": false,
      "stateMutability": "view",
      "type": "function"
    },
    {
      "constant": true,
      "inputs": [],
      "name": "totalSupply",
      "outputs": [
        {
          "internalType": "uint256",
          "name": "",
          "type": "uint256"
        }
      ],
      "payable": false,
      "stateMutability": "view",
      "type": "function"
    },
    {
      "constant": true,
      "inputs": [],
      "name": "yamsScalingFactor",
      "outputs": [
        {
          "internalType": "uint256",
          "name": "",
          "type": "uint256"
        }
      ],
      "payable": false,
      "stateMutability": "view",
      "type": "function"
    },
    {
      "constant": false,
      "inputs": [
        {
          "internalType": "address",
          "name": "implementation_",
          "type": "address"
        },
        {
          "internalType": "bool",
          "name": "allowResign",
          "type": "bool"
        },
        {
          "internalType": "bytes",
          "name": "becomeImplementationData",
          "type": "bytes"
        }
      ],
      "name": "_setImplementation",
      "outputs": [],
      "payable": false,
      "stateMutability": "nonpayable",
      "type": "function"
    },
    {
      "constant": false,
      "inputs": [
        {
          "internalType": "address",
          "name": "to",
          "type": "address"
        },
        {
          "internalType": "uint256",
          "name": "mintAmount",
          "type": "uint256"
        }
      ],
      "name": "mint",
      "outputs": [
        {
          "internalType": "bool",
          "name": "",
          "type": "bool"
        }
      ],
      "payable": false,
      "stateMutability": "nonpayable",
      "type": "function"
    },
    {
      "constant": false,
      "inputs": [
        {
          "internalType": "address",
          "name": "dst",
          "type": "address"
        },
        {
          "internalType": "uint256",
          "name": "amount",
          "type": "uint256"
        }
      ],
      "name": "transfer",
      "outputs": [
        {
          "internalType": "bool",
          "name": "",
          "type": "bool"
        }
      ],
      "payable": false,
      "stateMutability": "nonpayable",
      "type": "function"
    },
    {
      "constant": false,
      "inputs": [
        {
          "internalType": "address",
          "name": "src",
          "type": "address"
        },
        {
          "internalType": "address",
          "name": "dst",
          "type": "address"
        },
        {
          "internalType": "uint256",
          "name": "amount",
          "type": "uint256"
        }
      ],
      "name": "transferFrom",
      "outputs": [
        {
          "internalType": "bool",
          "name": "",
          "type": "bool"
        }
      ],
      "payable": false,
      "stateMutability": "nonpayable",
      "type": "function"
    },
    {
      "constant": false,
      "inputs": [
        {
          "internalType": "address",
          "name": "spender",
          "type": "address"
        },
        {
          "internalType": "uint256",
          "name": "amount",
          "type": "uint256"
        }
      ],
      "name": "approve",
      "outputs": [
        {
          "internalType": "bool",
          "name": "",
          "type": "bool"
        }
      ],
      "payable": false,
      "stateMutability": "nonpayable",
      "type": "function"
    },
    {
      "constant": false,
      "inputs": [
        {
          "internalType": "address",
          "name": "spender",
          "type": "address"
        },
        {
          "internalType": "uint256",
          "name": "addedValue",
          "type": "uint256"
        }
      ],
      "name": "increaseAllowance",
      "outputs": [
        {
          "internalType": "bool",
          "name": "",
          "type": "bool"
        }
      ],
      "payable": false,
      "stateMutability": "nonpayable",
      "type": "function"
    },
    {
      "constant": true,
      "inputs": [],
      "name": "maxScalingFactor",
      "outputs": [
        {
          "internalType": "uint256",
          "name": "",
          "type": "uint256"
        }
      ],
      "payable": false,
      "stateMutability": "view",
      "type": "function"
    },
    {
      "constant": false,
      "inputs": [
        {
          "internalType": "uint256",
          "name": "epoch",
          "type": "uint256"
        },
        {
          "internalType": "uint256",
          "name": "indexDelta",
          "type": "uint256"
        },
        {
          "internalType": "bool",
          "name": "positive",
          "type": "bool"
        }
      ],
      "name": "rebase",
      "outputs": [
        {
          "internalType": "uint256",
          "name": "",
          "type": "uint256"
        }
      ],
      "payable": false,
      "stateMutability": "nonpayable",
      "type": "function"
    },
    {
      "constant": false,
      "inputs": [
        {
          "internalType": "address",
          "name": "spender",
          "type": "address"
        },
        {
          "internalType": "uint256",
          "name": "subtractedValue",
          "type": "uint256"
        }
      ],
      "name": "decreaseAllowance",
      "outputs": [
        {
          "internalType": "bool",
          "name": "",
          "type": "bool"
        }
      ],
      "payable": false,
      "stateMutability": "nonpayable",
      "type": "function"
    },
    {
      "constant": true,
      "inputs": [
        {
          "internalType": "address",
          "name": "owner",
          "type": "address"
        },
        {
          "internalType": "address",
          "name": "spender",
          "type": "address"
        }
      ],
      "name": "allowance",
      "outputs": [
        {
          "internalType": "uint256",
          "name": "",
          "type": "uint256"
        }
      ],
      "payable": false,
      "stateMutability": "view",
      "type": "function"
    },
    {
      "constant": true,
      "inputs": [
        {
          "internalType": "address",
          "name": "delegator",
          "type": "address"
        }
      ],
      "name": "delegates",
      "outputs": [
        {
          "internalType": "address",
          "name": "",
          "type": "address"
        }
      ],
      "payable": false,
      "stateMutability": "view",
      "type": "function"
    },
    {
      "constant": true,
      "inputs": [
        {
          "internalType": "address",
          "name": "owner",
          "type": "address"
        }
      ],
      "name": "balanceOf",
      "outputs": [
        {
          "internalType": "uint256",
          "name": "",
          "type": "uint256"
        }
      ],
      "payable": false,
      "stateMutability": "view",
      "type": "function"
    },
    {
      "constant": true,
      "inputs": [
        {
          "internalType": "address",
          "name": "owner",
          "type": "address"
        }
      ],
      "name": "balanceOfUnderlying",
      "outputs": [
        {
          "internalType": "uint256",
          "name": "",
          "type": "uint256"
        }
      ],
      "payable": false,
      "stateMutability": "view",
      "type": "function"
    },
    {
      "constant": false,
      "inputs": [
        {
          "internalType": "address",
          "name": "newPendingGov",
          "type": "address"
        }
      ],
      "name": "_setPendingGov",
      "outputs": [],
      "payable": false,
      "stateMutability": "nonpayable",
      "type": "function"
    },
    {
      "constant": false,
      "inputs": [
        {
          "internalType": "address",
          "name": "rebaser_",
          "type": "address"
        }
      ],
      "name": "_setRebaser",
      "outputs": [],
      "payable": false,
      "stateMutability": "nonpayable",
      "type": "function"
    },
    {
      "constant": false,
      "inputs": [
        {
          "internalType": "address",
          "name": "incentivizer_",
          "type": "address"
        }
      ],
      "name": "_setIncentivizer",
      "outputs": [],
      "payable": false,
      "stateMutability": "nonpayable",
      "type": "function"
    },
    {
      "constant": false,
      "inputs": [],
      "name": "_acceptGov",
      "outputs": [],
      "payable": false,
      "stateMutability": "nonpayable",
      "type": "function"
    },
    {
      "constant": true,
      "inputs": [
        {
          "internalType": "address",
          "name": "account",
          "type": "address"
        },
        {
          "internalType": "uint256",
          "name": "blockNumber",
          "type": "uint256"
        }
      ],
      "name": "getPriorVotes",
      "outputs": [
        {
          "internalType": "uint256",
          "name": "",
          "type": "uint256"
        }
      ],
      "payable": false,
      "stateMutability": "view",
      "type": "function"
    },
    {
      "constant": false,
      "inputs": [
        {
          "internalType": "address",
          "name": "delegatee",
          "type": "address"
        },
        {
          "internalType": "uint256",
          "name": "nonce",
          "type": "uint256"
        },
        {
          "internalType": "uint256",
          "name": "expiry",
          "type": "uint256"
        },
        {
          "internalType": "uint8",
          "name": "v",
          "type": "uint8"
        },
        {
          "internalType": "bytes32",
          "name": "r",
          "type": "bytes32"
        },
        {
          "internalType": "bytes32",
          "name": "s",
          "type": "bytes32"
        }
      ],
      "name": "delegateBySig",
      "outputs": [],
      "payable": false,
      "stateMutability": "nonpayable",
      "type": "function"
    },
    {
      "constant": false,
      "inputs": [
        {
          "internalType": "address",
          "name": "delegatee",
          "type": "address"
        }
      ],
      "name": "delegate",
      "outputs": [],
      "payable": false,
      "stateMutability": "nonpayable",
      "type": "function"
    },
    {
      "constant": true,
      "inputs": [
        {
          "internalType": "address",
          "name": "account",
          "type": "address"
        }
      ],
      "name": "getCurrentVotes",
      "outputs": [
        {
          "internalType": "uint256",
          "name": "",
          "type": "uint256"
        }
      ],
      "payable": false,
      "stateMutability": "view",
      "type": "function"
    },
    {
      "constant": false,
      "inputs": [
        {
          "internalType": "bytes",
          "name": "data",
          "type": "bytes"
        }
      ],
      "name": "delegateToImplementation",
      "outputs": [
        {
          "internalType": "bytes",
          "name": "",
          "type": "bytes"
        }
      ],
      "payable": false,
      "stateMutability": "nonpayable",
      "type": "function"
    },
    {
      "constant": true,
      "inputs": [
        {
          "internalType": "bytes",
          "name": "data",
          "type": "bytes"
        }
      ],
      "name": "delegateToViewImplementation",
      "outputs": [
        {
          "internalType": "bytes",
          "name": "",
          "type": "bytes"
        }
      ],
      "payable": false,
      "stateMutability": "view",
      "type": "function"
    }
  ],
  "bytecode": "0x60806040523480156200001157600080fd5b5060405162002ba038038062002ba0833981810160405260c08110156200003757600080fd5b81019080805160405193929190846401000000008211156200005857600080fd5b838201915060208201858111156200006f57600080fd5b82518660018202830111640100000000821117156200008d57600080fd5b8083526020830192505050908051906020019080838360005b83811015620000c3578082015181840152602081019050620000a6565b50505050905090810190601f168015620000f15780820380516001836020036101000a031916815260200191505b50604052602001805160405193929190846401000000008211156200011557600080fd5b838201915060208201858111156200012c57600080fd5b82518660018202830111640100000000821117156200014a57600080fd5b8083526020830192505050908051906020019080838360005b838110156200018057808201518184015260208101905062000163565b50505050905090810190601f168015620001ae5780820380516001836020036101000a031916815260200191505b5060405260200180519060200190929190805190602001909291908051906020019092919080516040519392919084640100000000821115620001f057600080fd5b838201915060208201858111156200020757600080fd5b82518660018202830111640100000000821117156200022557600080fd5b8083526020830192505050908051906020019080838360005b838110156200025b5780820151818401526020810190506200023e565b50505050905090810190601f168015620002895780820380516001836020036101000a031916815260200191505b5060405250505033600360016101000a81548173ffffffffffffffffffffffffffffffffffffffff021916908373ffffffffffffffffffffffffffffffffffffffff160217905550620004928287878733886040516024018080602001806020018660ff1660ff1681526020018573ffffffffffffffffffffffffffffffffffffffff1673ffffffffffffffffffffffffffffffffffffffff168152602001848152602001838103835288818151815260200191508051906020019080838360005b83811015620003685780820151818401526020810190506200034b565b50505050905090810190601f168015620003965780820380516001836020036101000a031916815260200191505b50838103825287818151815260200191508051906020019080838360005b83811015620003d1578082015181840152602081019050620003b4565b50505050905090810190601f168015620003ff5780820380516001836020036101000a031916815260200191505b509750505050505050506040516020818303038152906040527f6c945221000000000000000000000000000000000000000000000000000000007bffffffffffffffffffffffffffffffffffffffffffffffffffffffff19166020820180517bffffffffffffffffffffffffffffffffffffffffffffffffffffffff8381831617835250505050620004b360201b60201c565b50620004a7826000836200058e60201b60201c565b5050505050506200093d565b6060600060608473ffffffffffffffffffffffffffffffffffffffff16846040518082805190602001908083835b60208310620005065780518252602082019150602081019050602083039250620004e1565b6001836020036101000a038019825116818451168082178552505050505050905001915050600060405180830381855af49150503d806000811462000568576040519150601f19603f3d011682016040523d82523d6000602084013e6200056d565b606091505b5091509150600082141562000583573d60208201fd5b809250505092915050565b600360019054906101000a900473ffffffffffffffffffffffffffffffffffffffff1673ffffffffffffffffffffffffffffffffffffffff163373ffffffffffffffffffffffffffffffffffffffff161462000636576040517f08c379a000000000000000000000000000000000000000000000000000000000815260040180806020018281038252603481526020018062002b6c6034913960400191505060405180910390fd5b8115620006d257620006d06040516024016040516020818303038152906040527f153ab505000000000000000000000000000000000000000000000000000000007bffffffffffffffffffffffffffffffffffffffffffffffffffffffff19166020820180517bffffffffffffffffffffffffffffffffffffffffffffffffffffffff83818316178352505050506200090060201b60201c565b505b6000601060009054906101000a900473ffffffffffffffffffffffffffffffffffffffff16905083601060006101000a81548173ffffffffffffffffffffffffffffffffffffffff021916908373ffffffffffffffffffffffffffffffffffffffff16021790555062000840826040516024018080602001828103825283818151815260200191508051906020019080838360005b838110156200078457808201518184015260208101905062000767565b50505050905090810190601f168015620007b25780820380516001836020036101000a031916815260200191505b50925050506040516020818303038152906040527f56e67728000000000000000000000000000000000000000000000000000000007bffffffffffffffffffffffffffffffffffffffffffffffffffffffff19166020820180517bffffffffffffffffffffffffffffffffffffffffffffffffffffffff83818316178352505050506200090060201b60201c565b507fd604de94d45953f9138079ec1b82d533cb2160c906d1076d1f7ed54befbca97a81601060009054906101000a900473ffffffffffffffffffffffffffffffffffffffff16604051808373ffffffffffffffffffffffffffffffffffffffff1673ffffffffffffffffffffffffffffffffffffffff1681526020018273ffffffffffffffffffffffffffffffffffffffff1673ffffffffffffffffffffffffffffffffffffffff1681526020019250505060405180910390a150505050565b606062000936601060009054906101000a900473ffffffffffffffffffffffffffffffffffffffff1683620004b360201b60201c565b9050919050565b61221f806200094d6000396000f3fe6080604052600436106102465760003560e01c806364dd48f51161013957806398dca210116100b6578063c3cda5201161007a578063c3cda5201461116c578063dd62ed3e146111f2578063e7a324dc14611277578063ec342ad0146112a2578063f1127ed8146112cd578063fa8f34551461135557610246565b806398dca21014610fa5578063a457c2d714610ff6578063a9059cbb14611069578063b4b5ea57146110dc578063b6fa85761461114157610246565b8063782d6fe1116100fd578063782d6fe114610db15780637af548c114610e205780637ecebe0014610e8557806395d89b4114610eea57806397d63f9314610f7a57610246565b806364dd48f514610c085780636fc6407c14610c335780636fcfff4514610c8a57806370a0823114610cfb57806373f03dff14610d6057610246565b8063313ce567116101c75780634bda2e201161018b5780634bda2e20146109c4578063555bcc40146109db578063587cde1e14610acf5780635c19a95c14610b605780635c60da1b14610bb157610246565b8063313ce5671461070757806339509351146107385780633af9e669146107ab57806340c10f19146108105780634487152f1461088357610246565b806312d43a511161020e57806312d43a511461057057806318160ddd146105c757806320606b70146105f257806323b872dd1461061d57806325240810146106b057610246565b806306fdde03146102aa5780630933c1ed1461033a578063095ea7b31461047b57806311d3e6c4146104ee57806311fd8a8314610519575b6000341461029f576040517f08c379a000000000000000000000000000000000000000000000000000000000815260040180806020018281038252603481526020018061213a6034913960400191505060405180910390fd5b6102a76113a6565b50005b3480156102b657600080fd5b506102bf611458565b6040518080602001828103825283818151815260200191508051906020019080838360005b838110156102ff5780820151818401526020810190506102e4565b50505050905090810190601f16801561032c5780820380516001836020036101000a031916815260200191505b509250505060405180910390f35b34801561034657600080fd5b506104006004803603602081101561035d57600080fd5b810190808035906020019064010000000081111561037a57600080fd5b82018360208201111561038c57600080fd5b803590602001918460018302840111640100000000831117156103ae57600080fd5b91908080601f016020809104026020016040519081016040528093929190818152602001838380828437600081840152601f19601f8201169050808301925050505050505091929192905050506114f6565b6040518080602001828103825283818151815260200191508051906020019080838360005b83811015610440578082015181840152602081019050610425565b50505050905090810190601f16801561046d5780820380516001836020036101000a031916815260200191505b509250505060405180910390f35b34801561048757600080fd5b506104d46004803603604081101561049e57600080fd5b81019080803573ffffffffffffffffffffffffffffffffffffffff1690602001909291908035906020019092919050505061152b565b604051808215151515815260200191505060405180910390f35b3480156104fa57600080fd5b5061050361153c565b6040518082815260200191505060405180910390f35b34801561052557600080fd5b5061052e61154a565b604051808273ffffffffffffffffffffffffffffffffffffffff1673ffffffffffffffffffffffffffffffffffffffff16815260200191505060405180910390f35b34801561057c57600080fd5b50610585611570565b604051808273ffffffffffffffffffffffffffffffffffffffff1673ffffffffffffffffffffffffffffffffffffffff16815260200191505060405180910390f35b3480156105d357600080fd5b506105dc611596565b6040518082815260200191505060405180910390f35b3480156105fe57600080fd5b5061060761159c565b6040518082815260200191505060405180910390f35b34801561062957600080fd5b506106966004803603606081101561064057600080fd5b81019080803573ffffffffffffffffffffffffffffffffffffffff169060200190929190803573ffffffffffffffffffffffffffffffffffffffff169060200190929190803590602001909291905050506115b8565b604051808215151515815260200191505060405180910390f35b3480156106bc57600080fd5b506106c56115ca565b604051808273ffffffffffffffffffffffffffffffffffffffff1673ffffffffffffffffffffffffffffffffffffffff16815260200191505060405180910390f35b34801561071357600080fd5b5061071c6115f0565b604051808260ff1660ff16815260200191505060405180910390f35b34801561074457600080fd5b506107916004803603604081101561075b57600080fd5b81019080803573ffffffffffffffffffffffffffffffffffffffff16906020019092919080359060200190929190505050611603565b604051808215151515815260200191505060405180910390f35b3480156107b757600080fd5b506107fa600480360360208110156107ce57600080fd5b81019080803573ffffffffffffffffffffffffffffffffffffffff169060200190929190505050611614565b6040518082815260200191505060405180910390f35b34801561081c57600080fd5b506108696004803603604081101561083357600080fd5b81019080803573ffffffffffffffffffffffffffffffffffffffff16906020019092919080359060200190929190505050611624565b604051808215151515815260200191505060405180910390f35b34801561088f57600080fd5b50610949600480360360208110156108a657600080fd5b81019080803590602001906401000000008111156108c357600080fd5b8201836020820111156108d557600080fd5b803590602001918460018302840111640100000000831117156108f757600080fd5b91908080601f016020809104026020016040519081016040528093929190818152602001838380828437600081840152601f19601f820116905080830192505050505050509192919290505050611635565b6040518080602001828103825283818151815260200191508051906020019080838360005b8381101561098957808201518184015260208101905061096e565b50505050905090810190601f1680156109b65780820380516001836020036101000a031916815260200191505b509250505060405180910390f35b3480156109d057600080fd5b506109d96118cb565b005b3480156109e757600080fd5b50610acd600480360360608110156109fe57600080fd5b81019080803573ffffffffffffffffffffffffffffffffffffffff16906020019092919080351515906020019092919080359060200190640100000000811115610a4757600080fd5b820183602082011115610a5957600080fd5b80359060200191846001830284011164010000000083111715610a7b57600080fd5b91908080601f016020809104026020016040519081016040528093929190818152602001838380828437600081840152601f19601f8201169050808301925050505050505091929192905050506118d6565b005b348015610adb57600080fd5b50610b1e60048036036020811015610af257600080fd5b81019080803573ffffffffffffffffffffffffffffffffffffffff169060200190929190505050611c32565b604051808273ffffffffffffffffffffffffffffffffffffffff1673ffffffffffffffffffffffffffffffffffffffff16815260200191505060405180910390f35b348015610b6c57600080fd5b50610baf60048036036020811015610b8357600080fd5b81019080803573ffffffffffffffffffffffffffffffffffffffff169060200190929190505050611c42565b005b348015610bbd57600080fd5b50610bc6611c4e565b604051808273ffffffffffffffffffffffffffffffffffffffff1673ffffffffffffffffffffffffffffffffffffffff16815260200191505060405180910390f35b348015610c1457600080fd5b50610c1d611c74565b6040518082815260200191505060405180910390f35b348015610c3f57600080fd5b50610c48611c82565b604051808273ffffffffffffffffffffffffffffffffffffffff1673ffffffffffffffffffffffffffffffffffffffff16815260200191505060405180910390f35b348015610c9657600080fd5b50610cd960048036036020811015610cad57600080fd5b81019080803573ffffffffffffffffffffffffffffffffffffffff169060200190929190505050611ca8565b604051808263ffffffff1663ffffffff16815260200191505060405180910390f35b348015610d0757600080fd5b50610d4a60048036036020811015610d1e57600080fd5b81019080803573ffffffffffffffffffffffffffffffffffffffff169060200190929190505050611ccb565b6040518082815260200191505060405180910390f35b348015610d6c57600080fd5b50610daf60048036036020811015610d8357600080fd5b81019080803573ffffffffffffffffffffffffffffffffffffffff169060200190929190505050611cdb565b005b348015610dbd57600080fd5b50610e0a60048036036040811015610dd457600080fd5b81019080803573ffffffffffffffffffffffffffffffffffffffff16906020019092919080359060200190929190505050611ce7565b6040518082815260200191505060405180910390f35b348015610e2c57600080fd5b50610e6f60048036036060811015610e4357600080fd5b810190808035906020019092919080359060200190929190803515159060200190929190505050611cf8565b6040518082815260200191505060405180910390f35b348015610e9157600080fd5b50610ed460048036036020811015610ea857600080fd5b81019080803573ffffffffffffffffffffffffffffffffffffffff169060200190929190505050611d0a565b6040518082815260200191505060405180910390f35b348015610ef657600080fd5b50610eff611d22565b6040518080602001828103825283818151815260200191508051906020019080838360005b83811015610f3f578082015181840152602081019050610f24565b50505050905090810190601f168015610f6c5780820380516001836020036101000a031916815260200191505b509250505060405180910390f35b348015610f8657600080fd5b50610f8f611dc0565b6040518082815260200191505060405180910390f35b348015610fb157600080fd5b50610ff460048036036020811015610fc857600080fd5b81019080803573ffffffffffffffffffffffffffffffffffffffff169060200190929190505050611dc6565b005b34801561100257600080fd5b5061104f6004803603604081101561101957600080fd5b81019080803573ffffffffffffffffffffffffffffffffffffffff16906020019092919080359060200190929190505050611dd2565b604051808215151515815260200191505060405180910390f35b34801561107557600080fd5b506110c26004803603604081101561108c57600080fd5b81019080803573ffffffffffffffffffffffffffffffffffffffff16906020019092919080359060200190929190505050611de3565b604051808215151515815260200191505060405180910390f35b3480156110e857600080fd5b5061112b600480360360208110156110ff57600080fd5b81019080803573ffffffffffffffffffffffffffffffffffffffff169060200190929190505050611df4565b6040518082815260200191505060405180910390f35b34801561114d57600080fd5b50611156611e04565b6040518082815260200191505060405180910390f35b34801561117857600080fd5b506111f0600480360360c081101561118f57600080fd5b81019080803573ffffffffffffffffffffffffffffffffffffffff1690602001909291908035906020019092919080359060200190929190803560ff1690602001909291908035906020019092919080359060200190929190505050611e0a565b005b3480156111fe57600080fd5b506112616004803603604081101561121557600080fd5b81019080803573ffffffffffffffffffffffffffffffffffffffff169060200190929190803573ffffffffffffffffffffffffffffffffffffffff169060200190929190505050611e1b565b6040518082815260200191505060405180910390f35b34801561128357600080fd5b5061128c611e2c565b6040518082815260200191505060405180910390f35b3480156112ae57600080fd5b506112b7611e48565b6040518082815260200191505060405180910390f35b3480156112d957600080fd5b5061132c600480360360408110156112f057600080fd5b81019080803573ffffffffffffffffffffffffffffffffffffffff169060200190929190803563ffffffff169060200190929190505050611e54565b604051808363ffffffff1663ffffffff1681526020018281526020019250505060405180910390f35b34801561136157600080fd5b506113a46004803603602081101561137857600080fd5b81019080803573ffffffffffffffffffffffffffffffffffffffff169060200190929190505050611e95565b005b60606000601060009054906101000a900473ffffffffffffffffffffffffffffffffffffffff1673ffffffffffffffffffffffffffffffffffffffff16600036604051808383808284378083019250505092505050600060405180830381855af49150503d8060008114611436576040519150601f19603f3d011682016040523d82523d6000602084013e61143b565b606091505b505090506040513d6000823e8160008114611454573d82f35b3d82fd5b60018054600181600116156101000203166002900480601f0160208091040260200160405190810160405280929190818152602001828054600181600116156101000203166002900480156114ee5780601f106114c3576101008083540402835291602001916114ee565b820191906000526020600020905b8154815290600101906020018083116114d157829003601f168201915b505050505081565b6060611524601060009054906101000a900473ffffffffffffffffffffffffffffffffffffffff1683611ea1565b9050919050565b60006115356113a6565b5092915050565b6000611546611f77565b5090565b600560009054906101000a900473ffffffffffffffffffffffffffffffffffffffff1681565b600360019054906101000a900473ffffffffffffffffffffffffffffffffffffffff1681565b60075481565b604051808061216e604391396043019050604051809103902081565b60006115c26113a6565b509392505050565b600460009054906101000a900473ffffffffffffffffffffffffffffffffffffffff1681565b600360009054906101000a900460ff1681565b600061160d6113a6565b5092915050565b600061161e611f77565b50919050565b600061162e6113a6565b5092915050565b6060600060603073ffffffffffffffffffffffffffffffffffffffff16846040516024018080602001828103825283818151815260200191508051906020019080838360005b8381101561169657808201518184015260208101905061167b565b50505050905090810190601f1680156116c35780820380516001836020036101000a031916815260200191505b50925050506040516020818303038152906040527f0933c1ed000000000000000000000000000000000000000000000000000000007bffffffffffffffffffffffffffffffffffffffffffffffffffffffff19166020820180517bffffffffffffffffffffffffffffffffffffffffffffffffffffffff83818316178352505050506040518082805190602001908083835b602083106117785780518252602082019150602081019050602083039250611755565b6001836020036101000a038019825116818451168082178552505050505050905001915050600060405180830381855afa9150503d80600081146117d8576040519150601f19603f3d011682016040523d82523d6000602084013e6117dd565b606091505b509150915060008214156117f2573d60208201fd5b80806020019051602081101561180757600080fd5b810190808051604051939291908464010000000082111561182757600080fd5b8382019150602082018581111561183d57600080fd5b825186600182028301116401000000008211171561185a57600080fd5b8083526020830192505050908051906020019080838360005b8381101561188e578082015181840152602081019050611873565b50505050905090810190601f1680156118bb5780820380516001836020036101000a031916815260200191505b5060405250505092505050919050565b6118d36113a6565b50565b600360019054906101000a900473ffffffffffffffffffffffffffffffffffffffff1673ffffffffffffffffffffffffffffffffffffffff163373ffffffffffffffffffffffffffffffffffffffff161461197c576040517f08c379a00000000000000000000000000000000000000000000000000000000081526004018080602001828103825260348152602001806121066034913960400191505060405180910390fd5b8115611a0f57611a0d6040516024016040516020818303038152906040527f153ab505000000000000000000000000000000000000000000000000000000007bffffffffffffffffffffffffffffffffffffffffffffffffffffffff19166020820180517bffffffffffffffffffffffffffffffffffffffffffffffffffffffff83818316178352505050506114f6565b505b6000601060009054906101000a900473ffffffffffffffffffffffffffffffffffffffff16905083601060006101000a81548173ffffffffffffffffffffffffffffffffffffffff021916908373ffffffffffffffffffffffffffffffffffffffff160217905550611b72826040516024018080602001828103825283818151815260200191508051906020019080838360005b83811015611abe578082015181840152602081019050611aa3565b50505050905090810190601f168015611aeb5780820380516001836020036101000a031916815260200191505b50925050506040516020818303038152906040527f56e67728000000000000000000000000000000000000000000000000000000007bffffffffffffffffffffffffffffffffffffffffffffffffffffffff19166020820180517bffffffffffffffffffffffffffffffffffffffffffffffffffffffff83818316178352505050506114f6565b507fd604de94d45953f9138079ec1b82d533cb2160c906d1076d1f7ed54befbca97a81601060009054906101000a900473ffffffffffffffffffffffffffffffffffffffff16604051808373ffffffffffffffffffffffffffffffffffffffff1673ffffffffffffffffffffffffffffffffffffffff1681526020018273ffffffffffffffffffffffffffffffffffffffff1673ffffffffffffffffffffffffffffffffffffffff1681526020019250505060405180910390a150505050565b6000611c3c611f77565b50919050565b611c4a6113a6565b5050565b601060009054906101000a900473ffffffffffffffffffffffffffffffffffffffff1681565b69d3c21bcecceda100000081565b600660009054906101000a900473ffffffffffffffffffffffffffffffffffffffff1681565b600e6020528060005260406000206000915054906101000a900463ffffffff1681565b6000611cd5611f77565b50919050565b611ce36113a6565b5050565b6000611cf1611f77565b5092915050565b6000611d026113a6565b509392505050565b600f6020528060005260406000206000915090505481565b60028054600181600116156101000203166002900480601f016020809104026020016040519081016040528092919081815260200182805460018160011615610100020316600290048015611db85780601f10611d8d57610100808354040283529160200191611db8565b820191906000526020600020905b815481529060010190602001808311611d9b57829003601f168201915b505050505081565b600b5481565b611dce6113a6565b5050565b6000611ddc6113a6565b5092915050565b6000611ded6113a6565b5092915050565b6000611dfe611f77565b50919050565b60085481565b611e126113a6565b50505050505050565b6000611e25611f77565b5092915050565b60405180806121b1603a9139603a019050604051809103902081565b670de0b6b3a764000081565b600d602052816000526040600020602052806000526040600020600091509150508060000160009054906101000a900463ffffffff16908060010154905082565b611e9d6113a6565b5050565b6060600060608473ffffffffffffffffffffffffffffffffffffffff16846040518082805190602001908083835b60208310611ef25780518252602082019150602081019050602083039250611ecf565b6001836020036101000a038019825116818451168082178552505050505050905001915050600060405180830381855af49150503d8060008114611f52576040519150601f19603f3d011682016040523d82523d6000602084013e611f57565b606091505b50915091506000821415611f6c573d60208201fd5b809250505092915050565b606060003073ffffffffffffffffffffffffffffffffffffffff1660003660405160240180806020018281038252848482818152602001925080828437600081840152601f19601f82011690508083019250505093505050506040516020818303038152906040527f0933c1ed000000000000000000000000000000000000000000000000000000007bffffffffffffffffffffffffffffffffffffffffffffffffffffffff19166020820180517bffffffffffffffffffffffffffffffffffffffffffffffffffffffff83818316178352505050506040518082805190602001908083835b60208310612080578051825260208201915060208101905060208303925061205d565b6001836020036101000a038019825116818451168082178552505050505050905001915050600060405180830381855afa9150503d80600081146120e0576040519150601f19603f3d011682016040523d82523d6000602084013e6120e5565b606091505b505090506040513d6000823e8160008114612101573d60408301f35b3d82fdfe59414d44656c656761746f723a3a5f736574496d706c656d656e746174696f6e3a2043616c6c6572206d75737420626520676f7659414d44656c656761746f723a66616c6c6261636b3a2063616e6e6f742073656e642076616c756520746f2066616c6c6261636b454950373132446f6d61696e28737472696e67206e616d652c75696e7432353620636861696e49642c6164647265737320766572696679696e67436f6e74726163742944656c65676174696f6e28616464726573732064656c6567617465652c75696e74323536206e6f6e63652c75696e743235362065787069727929a265627a7a723158209e6b4ed1721f354fd2b39d5f9671ecd44f7cce5a51d6d0970377849bb9bd81ff64736f6c6343000511003259414d44656c656761746f723a3a5f736574496d706c656d656e746174696f6e3a2043616c6c6572206d75737420626520676f76",
  "source": "pragma solidity 0.5.17;\n\nimport \"./YAMTokenInterface.sol\";\nimport \"./YAMDelegate.sol\";\n\ncontract YAMDelegator is YAMTokenInterface, YAMDelegatorInterface {\n    /**\n     * @notice Construct a new YAM\n     * @param name_ ERC-20 name of this token\n     * @param symbol_ ERC-20 symbol of this token\n     * @param decimals_ ERC-20 decimal precision of this token\n     * @param initSupply_ Initial token amount\n     * @param implementation_ The address of the implementation the contract delegates to\n     * @param becomeImplementationData The encoded args for becomeImplementation\n     */\n    constructor(\n        string memory name_,\n        string memory symbol_,\n        uint8 decimals_,\n        uint256 initSupply_,\n        address implementation_,\n        bytes memory becomeImplementationData\n    )\n        public\n    {\n\n\n        // Creator of the contract is gov during initialization\n        gov = msg.sender;\n\n        // First delegate gets to initialize the delegator (i.e. storage contract)\n        delegateTo(\n            implementation_,\n            abi.encodeWithSignature(\n                \"initialize(string,string,uint8,address,uint256)\",\n                name_,\n                symbol_,\n                decimals_,\n                msg.sender,\n                initSupply_\n            )\n        );\n\n        // New implementations always get set via the settor (post-initialize)\n        _setImplementation(implementation_, false, becomeImplementationData);\n\n    }\n\n    /**\n     * @notice Called by the gov to update the implementation of the delegator\n     * @param implementation_ The address of the new implementation for delegation\n     * @param allowResign Flag to indicate whether to call _resignImplementation on the old implementation\n     * @param becomeImplementationData The encoded bytes data to be passed to _becomeImplementation\n     */\n    function _setImplementation(address implementation_, bool allowResign, bytes memory becomeImplementationData) public {\n        require(msg.sender == gov, \"YAMDelegator::_setImplementation: Caller must be gov\");\n\n        if (allowResign) {\n            delegateToImplementation(abi.encodeWithSignature(\"_resignImplementation()\"));\n        }\n\n        address oldImplementation = implementation;\n        implementation = implementation_;\n\n        delegateToImplementation(abi.encodeWithSignature(\"_becomeImplementation(bytes)\", becomeImplementationData));\n\n        emit NewImplementation(oldImplementation, implementation);\n    }\n\n    /**\n     * @notice Sender supplies assets into the market and receives cTokens in exchange\n     * @dev Accrues interest whether or not the operation succeeds, unless reverted\n     * @param mintAmount The amount of the underlying asset to supply\n     * @return uint 0=success, otherwise a failure (see ErrorReporter.sol for details)\n     */\n    function mint(address to, uint256 mintAmount)\n        external\n        returns (bool)\n    {\n        to; mintAmount; // Shh\n        delegateAndReturn();\n    }\n\n    /**\n     * @notice Transfer `amount` tokens from `msg.sender` to `dst`\n     * @param dst The address of the destination account\n     * @param amount The number of tokens to transfer\n     * @return Whether or not the transfer succeeded\n     */\n    function transfer(address dst, uint256 amount)\n        external\n        returns (bool)\n    {\n        dst; amount; // Shh\n        delegateAndReturn();\n    }\n\n    /**\n     * @notice Transfer `amount` tokens from `src` to `dst`\n     * @param src The address of the source account\n     * @param dst The address of the destination account\n     * @param amount The number of tokens to transfer\n     * @return Whether or not the transfer succeeded\n     */\n    function transferFrom(\n        address src,\n        address dst,\n        uint256 amount\n    )\n        external\n        returns (bool)\n    {\n        src; dst; amount; // Shh\n        delegateAndReturn();\n    }\n\n    /**\n     * @notice Approve `spender` to transfer up to `amount` from `src`\n     * @dev This will overwrite the approval amount for `spender`\n     *  and is subject to issues noted [here](https://eips.ethereum.org/EIPS/eip-20#approve)\n     * @param spender The address of the account which may transfer tokens\n     * @param amount The number of tokens that are approved (-1 means infinite)\n     * @return Whether or not the approval succeeded\n     */\n    function approve(\n        address spender,\n        uint256 amount\n    )\n        external\n        returns (bool)\n    {\n        spender; amount; // Shh\n        delegateAndReturn();\n    }\n\n    /**\n     * @dev Increase the amount of tokens that an owner has allowed to a spender.\n     * This method should be used instead of approve() to avoid the double approval vulnerability\n     * described above.\n     * @param spender The address which will spend the funds.\n     * @param addedValue The amount of tokens to increase the allowance by.\n     */\n    function increaseAllowance(\n        address spender,\n        uint256 addedValue\n    )\n        external\n        returns (bool)\n    {\n        spender; addedValue; // Shh\n        delegateAndReturn();\n    }\n\n    function maxScalingFactor()\n        external\n        view\n        returns (uint256)\n    {\n        delegateToViewAndReturn();\n    }\n\n    function rebase(\n        uint256 epoch,\n        uint256 indexDelta,\n        bool positive\n    )\n        external\n        returns (uint256)\n    {\n        epoch; indexDelta; positive;\n        delegateAndReturn();\n    }\n\n    /**\n     * @dev Decrease the amount of tokens that an owner has allowed to a spender.\n     *\n     * @param spender The address which will spend the funds.\n     * @param subtractedValue The amount of tokens to decrease the allowance by.\n     */\n    function decreaseAllowance(\n        address spender,\n        uint256 subtractedValue\n    )\n        external\n        returns (bool)\n    {\n        spender; subtractedValue; // Shh\n        delegateAndReturn();\n    }\n\n    /**\n     * @notice Get the current allowance from `owner` for `spender`\n     * @param owner The address of the account which owns the tokens to be spent\n     * @param spender The address of the account which may transfer tokens\n     * @return The number of tokens allowed to be spent (-1 means infinite)\n     */\n    function allowance(\n        address owner,\n        address spender\n    )\n        external\n        view\n        returns (uint256)\n    {\n        owner; spender; // Shh\n        delegateToViewAndReturn();\n    }\n\n    /**\n     * @notice Get the current allowance from `owner` for `spender`\n     * @param delegator The address of the account which has designated a delegate\n     * @return Address of delegatee\n     */\n    function delegates(\n        address delegator\n    )\n        external\n        view\n        returns (address)\n    {\n        delegator; // Shh\n        delegateToViewAndReturn();\n    }\n\n    /**\n     * @notice Get the token balance of the `owner`\n     * @param owner The address of the account to query\n     * @return The number of tokens owned by `owner`\n     */\n    function balanceOf(address owner)\n        external\n        view\n        returns (uint256)\n    {\n        owner; // Shh\n        delegateToViewAndReturn();\n    }\n\n    /**\n     * @notice Currently unused. For future compatability\n     * @param owner The address of the account to query\n     * @return The number of underlying tokens owned by `owner`\n     */\n    function balanceOfUnderlying(address owner)\n        external\n        view\n        returns (uint256)\n    {\n        owner; // Shh\n        delegateToViewAndReturn();\n    }\n\n    /*** Gov Functions ***/\n\n    /**\n      * @notice Begins transfer of gov rights. The newPendingGov must call `_acceptGov` to finalize the transfer.\n      * @dev Gov function to begin change of gov. The newPendingGov must call `_acceptGov` to finalize the transfer.\n      * @param newPendingGov New pending gov.\n      */\n    function _setPendingGov(address newPendingGov)\n        external\n    {\n        newPendingGov; // Shh\n        delegateAndReturn();\n    }\n\n    function _setRebaser(address rebaser_)\n        external\n    {\n        rebaser_; // Shh\n        delegateAndReturn();\n    }\n\n    function _setIncentivizer(address incentivizer_)\n        external\n    {\n        incentivizer_; // Shh\n        delegateAndReturn();\n    }\n\n    /**\n      * @notice Accepts transfer of gov rights. msg.sender must be pendingGov\n      * @dev Gov function for pending gov to accept role and update gov\n      * @return uint 0=success, otherwise a failure (see ErrorReporter.sol for details)\n      */\n    function _acceptGov()\n        external\n    {\n        delegateAndReturn();\n    }\n\n\n    function getPriorVotes(address account, uint blockNumber)\n        external\n        view\n        returns (uint256)\n    {\n        account; blockNumber;\n        delegateToViewAndReturn();\n    }\n\n    function delegateBySig(\n        address delegatee,\n        uint nonce,\n        uint expiry,\n        uint8 v,\n        bytes32 r,\n        bytes32 s\n    )\n        external\n    {\n        delegatee; nonce; expiry; v; r; s;\n        delegateAndReturn();\n    }\n\n    function delegate(address delegatee)\n        external\n    {\n        delegatee;\n        delegateAndReturn();\n    }\n\n    function getCurrentVotes(address account)\n        external\n        view\n        returns (uint256)\n    {\n        account;\n        delegateToViewAndReturn();\n    }\n\n    /**\n     * @notice Internal method to delegate execution to another contract\n     * @dev It returns to the external caller whatever the implementation returns or forwards reverts\n     * @param callee The contract to delegatecall\n     * @param data The raw data to delegatecall\n     * @return The returned bytes from the delegatecall\n     */\n    function delegateTo(address callee, bytes memory data) internal returns (bytes memory) {\n        (bool success, bytes memory returnData) = callee.delegatecall(data);\n        assembly {\n            if eq(success, 0) {\n                revert(add(returnData, 0x20), returndatasize)\n            }\n        }\n        return returnData;\n    }\n\n    /**\n     * @notice Delegates execution to the implementation contract\n     * @dev It returns to the external caller whatever the implementation returns or forwards reverts\n     * @param data The raw data to delegatecall\n     * @return The returned bytes from the delegatecall\n     */\n    function delegateToImplementation(bytes memory data) public returns (bytes memory) {\n        return delegateTo(implementation, data);\n    }\n\n    /**\n     * @notice Delegates execution to an implementation contract\n     * @dev It returns to the external caller whatever the implementation returns or forwards reverts\n     *  There are an additional 2 prefix uints from the wrapper returndata, which we ignore since we make an extra hop.\n     * @param data The raw data to delegatecall\n     * @return The returned bytes from the delegatecall\n     */\n    function delegateToViewImplementation(bytes memory data) public view returns (bytes memory) {\n        (bool success, bytes memory returnData) = address(this).staticcall(abi.encodeWithSignature(\"delegateToImplementation(bytes)\", data));\n        assembly {\n            if eq(success, 0) {\n                revert(add(returnData, 0x20), returndatasize)\n            }\n        }\n        return abi.decode(returnData, (bytes));\n    }\n\n    function delegateToViewAndReturn() private view returns (bytes memory) {\n        (bool success, ) = address(this).staticcall(abi.encodeWithSignature(\"delegateToImplementation(bytes)\", msg.data));\n\n        assembly {\n            let free_mem_ptr := mload(0x40)\n            returndatacopy(free_mem_ptr, 0, returndatasize)\n\n            switch success\n            case 0 { revert(free_mem_ptr, returndatasize) }\n            default { return(add(free_mem_ptr, 0x40), returndatasize) }\n        }\n    }\n\n    function delegateAndReturn() private returns (bytes memory) {\n        (bool success, ) = implementation.delegatecall(msg.data);\n\n        assembly {\n            let free_mem_ptr := mload(0x40)\n            returndatacopy(free_mem_ptr, 0, returndatasize)\n\n            switch success\n            case 0 { revert(free_mem_ptr, returndatasize) }\n            default { return(free_mem_ptr, returndatasize) }\n        }\n    }\n\n    /**\n     * @notice Delegates execution to an implementation contract\n     * @dev It returns to the external caller whatever the implementation returns or forwards reverts\n     */\n    function () external payable {\n        require(msg.value == 0,\"YAMDelegator:fallback: cannot send value to fallback\");\n\n        // delegate all other functions to current implementation\n        delegateAndReturn();\n    }\n}\n",
  "sourcePath": "/Users/minakokojima/Documents/GitHub/y3d-protocol/contracts/token/YAMDelegator.sol",
  "compiler": {
    "name": "solc",
    "version": "0.5.17+commit.d19bba13.Emscripten.clang"
  },
  "schemaVersion": "3.2.0",
  "updatedAt": "2020-08-16T03:35:20.498Z",
  "networkType": "ethereum",
  "devdoc": {
    "methods": {
      "_acceptGov()": {
        "details": "Gov function for pending gov to accept role and update gov",
        "return": "uint 0=success, otherwise a failure (see ErrorReporter.sol for details)"
      },
      "_setImplementation(address,bool,bytes)": {
        "params": {
          "allowResign": "Flag to indicate whether to call _resignImplementation on the old implementation",
          "becomeImplementationData": "The encoded bytes data to be passed to _becomeImplementation",
          "implementation_": "The address of the new implementation for delegation"
        }
      },
      "_setPendingGov(address)": {
        "details": "Gov function to begin change of gov. The newPendingGov must call `_acceptGov` to finalize the transfer.",
        "params": {
          "newPendingGov": "New pending gov."
        }
      },
      "allowance(address,address)": {
        "params": {
          "owner": "The address of the account which owns the tokens to be spent",
          "spender": "The address of the account which may transfer tokens"
        },
        "return": "The number of tokens allowed to be spent (-1 means infinite)"
      },
      "approve(address,uint256)": {
        "details": "This will overwrite the approval amount for `spender` and is subject to issues noted [here](https://eips.ethereum.org/EIPS/eip-20#approve)",
        "params": {
          "amount": "The number of tokens that are approved (-1 means infinite)",
          "spender": "The address of the account which may transfer tokens"
        },
        "return": "Whether or not the approval succeeded"
      },
      "balanceOf(address)": {
        "params": {
          "owner": "The address of the account to query"
        },
        "return": "The number of tokens owned by `owner`"
      },
      "balanceOfUnderlying(address)": {
        "params": {
          "owner": "The address of the account to query"
        },
        "return": "The number of underlying tokens owned by `owner`"
      },
      "constructor": {
        "params": {
          "becomeImplementationData": "The encoded args for becomeImplementation",
          "decimals_": "ERC-20 decimal precision of this token",
          "implementation_": "The address of the implementation the contract delegates to",
          "initSupply_": "Initial token amount",
          "name_": "ERC-20 name of this token",
          "symbol_": "ERC-20 symbol of this token"
        }
      },
      "decreaseAllowance(address,uint256)": {
        "details": "Decrease the amount of tokens that an owner has allowed to a spender.",
        "params": {
          "spender": "The address which will spend the funds.",
          "subtractedValue": "The amount of tokens to decrease the allowance by."
        }
      },
      "delegateToImplementation(bytes)": {
        "details": "It returns to the external caller whatever the implementation returns or forwards reverts",
        "params": {
          "data": "The raw data to delegatecall"
        },
        "return": "The returned bytes from the delegatecall"
      },
      "delegateToViewImplementation(bytes)": {
        "details": "It returns to the external caller whatever the implementation returns or forwards reverts There are an additional 2 prefix uints from the wrapper returndata, which we ignore since we make an extra hop.",
        "params": {
          "data": "The raw data to delegatecall"
        },
        "return": "The returned bytes from the delegatecall"
      },
      "delegates(address)": {
        "params": {
          "delegator": "The address of the account which has designated a delegate"
        },
        "return": "Address of delegatee"
      },
      "increaseAllowance(address,uint256)": {
        "details": "Increase the amount of tokens that an owner has allowed to a spender. This method should be used instead of approve() to avoid the double approval vulnerability described above.",
        "params": {
          "addedValue": "The amount of tokens to increase the allowance by.",
          "spender": "The address which will spend the funds."
        }
      },
      "mint(address,uint256)": {
        "details": "Accrues interest whether or not the operation succeeds, unless reverted",
        "params": {
          "mintAmount": "The amount of the underlying asset to supply"
        },
        "return": "uint 0=success, otherwise a failure (see ErrorReporter.sol for details)"
      },
      "transfer(address,uint256)": {
        "params": {
          "amount": "The number of tokens to transfer",
          "dst": "The address of the destination account"
        },
        "return": "Whether or not the transfer succeeded"
      },
      "transferFrom(address,address,uint256)": {
        "params": {
          "amount": "The number of tokens to transfer",
          "dst": "The address of the destination account",
          "src": "The address of the source account"
        },
        "return": "Whether or not the transfer succeeded"
      }
    }
  },
  "userdoc": {
    "methods": {
      "_acceptGov()": {
        "notice": "Accepts transfer of gov rights. msg.sender must be pendingGov"
      },
      "_setImplementation(address,bool,bytes)": {
        "notice": "Called by the gov to update the implementation of the delegator"
      },
      "_setPendingGov(address)": {
        "notice": "Begins transfer of gov rights. The newPendingGov must call `_acceptGov` to finalize the transfer."
      },
      "allowance(address,address)": {
        "notice": "Get the current allowance from `owner` for `spender`"
      },
      "approve(address,uint256)": {
        "notice": "Approve `spender` to transfer up to `amount` from `src`"
      },
      "balanceOf(address)": {
        "notice": "Get the token balance of the `owner`"
      },
      "balanceOfUnderlying(address)": {
        "notice": "Currently unused. For future compatability"
      },
      "constructor": "Construct a new YAM",
      "delegateToImplementation(bytes)": {
        "notice": "Delegates execution to the implementation contract"
      },
      "delegateToViewImplementation(bytes)": {
        "notice": "Delegates execution to an implementation contract"
      },
      "delegates(address)": {
        "notice": "Get the current allowance from `owner` for `spender`"
      },
      "mint(address,uint256)": {
        "notice": "Sender supplies assets into the market and receives cTokens in exchange"
      },
      "transfer(address,uint256)": {
        "notice": "Transfer `amount` tokens from `msg.sender` to `dst`"
      },
      "transferFrom(address,address,uint256)": {
        "notice": "Transfer `amount` tokens from `src` to `dst`"
      }
    }
  }
}