{
  "contractName": "YAMGovernanceStorage",
  "abi": [
    {
      "constant": true,
      "inputs": [],
      "name": "DELEGATION_TYPEHASH",
      "outputs": [
        {
          "internalType": "bytes32",
          "name": "",
          "type": "bytes32"
        }
      ],
      "payable": false,
      "stateMutability": "view",
      "type": "function"
    },
    {
      "constant": true,
      "inputs": [],
      "name": "DOMAIN_TYPEHASH",
      "outputs": [
        {
          "internalType": "bytes32",
          "name": "",
          "type": "bytes32"
        }
      ],
      "payable": false,
      "stateMutability": "view",
      "type": "function"
    },
    {
      "constant": true,
      "inputs": [
        {
          "internalType": "address",
          "name": "",
          "type": "address"
        },
        {
          "internalType": "uint32",
          "name": "",
          "type": "uint32"
        }
      ],
      "name": "checkpoints",
      "outputs": [
        {
          "internalType": "uint32",
          "name": "fromBlock",
          "type": "uint32"
        },
        {
          "internalType": "uint256",
          "name": "votes",
          "type": "uint256"
        }
      ],
      "payable": false,
      "stateMutability": "view",
      "type": "function"
    },
    {
      "constant": true,
      "inputs": [
        {
          "internalType": "address",
          "name": "",
          "type": "address"
        }
      ],
      "name": "nonces",
      "outputs": [
        {
          "internalType": "uint256",
          "name": "",
          "type": "uint256"
        }
      ],
      "payable": false,
      "stateMutability": "view",
      "type": "function"
    },
    {
      "constant": true,
      "inputs": [
        {
          "internalType": "address",
          "name": "",
          "type": "address"
        }
      ],
      "name": "numCheckpoints",
      "outputs": [
        {
          "internalType": "uint32",
          "name": "",
          "type": "uint32"
        }
      ],
      "payable": false,
      "stateMutability": "view",
      "type": "function"
    }
  ],
  "bytecode": "0x608060405234801561001057600080fd5b506104f7806100206000396000f3fe608060405234801561001057600080fd5b50600436106100575760003560e01c806320606b701461005c5780636fcfff451461007a5780637ecebe00146100aa578063e7a324dc146100da578063f1127ed8146100f8575b600080fd5b610064610129565b60405161007191906103ab565b60405180910390f35b610094600480360361008f91908101906101fd565b610140565b6040516100a191906103e1565b60405180910390f35b6100c460048036036100bf91908101906101fd565b610163565b6040516100d191906103c6565b60405180910390f35b6100e261017b565b6040516100ef91906103ab565b60405180910390f35b610112600480360361010d9190810190610226565b610192565b6040516101209291906103fc565b60405180910390f35b60405161013590610381565b604051809103902081565b60026020528060005260406000206000915054906101000a900463ffffffff1681565b60036020528060005260406000206000915090505481565b60405161018790610396565b604051809103902081565b6001602052816000526040600020602052806000526040600020600091509150508060000160009054906101000a900463ffffffff16908060010154905082565b6000813590506101e281610486565b92915050565b6000813590506101f78161049d565b92915050565b60006020828403121561020f57600080fd5b600061021d848285016101d3565b91505092915050565b6000806040838503121561023957600080fd5b6000610247858286016101d3565b9250506020610258858286016101e8565b9150509250929050565b61026b81610442565b82525050565b600061027e604383610425565b91507f454950373132446f6d61696e28737472696e67206e616d652c75696e7432353660008301527f20636861696e49642c6164647265737320766572696679696e67436f6e74726160208301527f63742900000000000000000000000000000000000000000000000000000000006040830152604382019050919050565b600061030a603a83610425565b91507f44656c65676174696f6e28616464726573732064656c6567617465652c75696e60008301527f74323536206e6f6e63652c75696e7432353620657870697279290000000000006020830152603a82019050919050565b61036c8161046c565b82525050565b61037b81610476565b82525050565b600061038c82610271565b9150819050919050565b60006103a1826102fd565b9150819050919050565b60006020820190506103c06000830184610262565b92915050565b60006020820190506103db6000830184610363565b92915050565b60006020820190506103f66000830184610372565b92915050565b60006040820190506104116000830185610372565b61041e6020830184610363565b9392505050565b600081905092915050565b600061043b8261044c565b9050919050565b6000819050919050565b600073ffffffffffffffffffffffffffffffffffffffff82169050919050565b6000819050919050565b600063ffffffff82169050919050565b61048f81610430565b811461049a57600080fd5b50565b6104a681610476565b81146104b157600080fd5b5056fea365627a7a7231582047552c3ef4e7bdde6fd2e05d55f356a8324fe5c826f403fc6f9e4609bb79c8096c6578706572696d656e74616cf564736f6c63430005110040",
  "source": "pragma solidity 0.5.17;\npragma experimental ABIEncoderV2;\n\ncontract YAMGovernanceStorage {\n    /// @notice A record of each accounts delegate\n    mapping (address => address) internal _delegates;\n\n    /// @notice A checkpoint for marking number of votes from a given block\n    struct Checkpoint {\n        uint32 fromBlock;\n        uint256 votes;\n    }\n\n    /// @notice A record of votes checkpoints for each account, by index\n    mapping (address => mapping (uint32 => Checkpoint)) public checkpoints;\n\n    /// @notice The number of checkpoints for each account\n    mapping (address => uint32) public numCheckpoints;\n\n    /// @notice The EIP-712 typehash for the contract's domain\n    bytes32 public constant DOMAIN_TYPEHASH = keccak256(\"EIP712Domain(string name,uint256 chainId,address verifyingContract)\");\n\n    /// @notice The EIP-712 typehash for the delegation struct used by the contract\n    bytes32 public constant DELEGATION_TYPEHASH = keccak256(\"Delegation(address delegatee,uint256 nonce,uint256 expiry)\");\n\n    /// @notice A record of states for signing / validating signatures\n    mapping (address => uint) public nonces;\n}\n",
  "sourcePath": "/Users/minakokojima/Documents/GitHub/my-yam-protocol/contracts/token/YAMGovernanceStorage.sol",
  "compiler": {
    "name": "solc",
    "version": "0.5.17+commit.d19bba13.Emscripten.clang"
  },
  "schemaVersion": "3.2.0",
  "updatedAt": "2020-08-16T00:07:36.858Z",
  "devdoc": {
    "methods": {}
  },
  "userdoc": {
    "methods": {}
  }
}