{
  "contractName": "YAMReserves",
  "abi": [
    {
      "inputs": [
        {
          "internalType": "address",
          "name": "reserveToken_",
          "type": "address"
        },
        {
          "internalType": "address",
          "name": "yamAddress_",
          "type": "address"
        }
      ],
      "payable": false,
      "stateMutability": "nonpayable",
      "type": "constructor"
    },
    {
      "anonymous": false,
      "inputs": [
        {
          "indexed": false,
          "internalType": "address",
          "name": "oldGov",
          "type": "address"
        },
        {
          "indexed": false,
          "internalType": "address",
          "name": "newGov",
          "type": "address"
        }
      ],
      "name": "NewGov",
      "type": "event"
    },
    {
      "anonymous": false,
      "inputs": [
        {
          "indexed": false,
          "internalType": "address",
          "name": "oldPendingGov",
          "type": "address"
        },
        {
          "indexed": false,
          "internalType": "address",
          "name": "newPendingGov",
          "type": "address"
        }
      ],
      "name": "NewPendingGov",
      "type": "event"
    },
    {
      "anonymous": false,
      "inputs": [
        {
          "indexed": false,
          "internalType": "address",
          "name": "oldRebaser",
          "type": "address"
        },
        {
          "indexed": false,
          "internalType": "address",
          "name": "newRebaser",
          "type": "address"
        }
      ],
      "name": "NewRebaser",
      "type": "event"
    },
    {
      "constant": true,
      "inputs": [],
      "name": "gov",
      "outputs": [
        {
          "internalType": "address",
          "name": "",
          "type": "address"
        }
      ],
      "payable": false,
      "stateMutability": "view",
      "type": "function"
    },
    {
      "constant": true,
      "inputs": [],
      "name": "pendingGov",
      "outputs": [
        {
          "internalType": "address",
          "name": "",
          "type": "address"
        }
      ],
      "payable": false,
      "stateMutability": "view",
      "type": "function"
    },
    {
      "constant": true,
      "inputs": [],
      "name": "rebaser",
      "outputs": [
        {
          "internalType": "address",
          "name": "",
          "type": "address"
        }
      ],
      "payable": false,
      "stateMutability": "view",
      "type": "function"
    },
    {
      "constant": true,
      "inputs": [],
      "name": "reserveToken",
      "outputs": [
        {
          "internalType": "address",
          "name": "",
          "type": "address"
        }
      ],
      "payable": false,
      "stateMutability": "view",
      "type": "function"
    },
    {
      "constant": true,
      "inputs": [],
      "name": "yamAddress",
      "outputs": [
        {
          "internalType": "address",
          "name": "",
          "type": "address"
        }
      ],
      "payable": false,
      "stateMutability": "view",
      "type": "function"
    },
    {
      "constant": false,
      "inputs": [
        {
          "internalType": "address",
          "name": "rebaser_",
          "type": "address"
        }
      ],
      "name": "_setRebaser",
      "outputs": [],
      "payable": false,
      "stateMutability": "nonpayable",
      "type": "function"
    },
    {
      "constant": false,
      "inputs": [
        {
          "internalType": "address",
          "name": "pendingGov_",
          "type": "address"
        }
      ],
      "name": "_setPendingGov",
      "outputs": [],
      "payable": false,
      "stateMutability": "nonpayable",
      "type": "function"
    },
    {
      "constant": false,
      "inputs": [],
      "name": "_acceptGov",
      "outputs": [],
      "payable": false,
      "stateMutability": "nonpayable",
      "type": "function"
    },
    {
      "constant": false,
      "inputs": [
        {
          "internalType": "address",
          "name": "newReserve",
          "type": "address"
        },
        {
          "internalType": "address[]",
          "name": "tokens",
          "type": "address[]"
        }
      ],
      "name": "migrateReserves",
      "outputs": [],
      "payable": false,
      "stateMutability": "nonpayable",
      "type": "function"
    },
    {
      "constant": true,
      "inputs": [],
      "name": "reserves",
      "outputs": [
        {
          "internalType": "uint256",
          "name": "",
          "type": "uint256"
        }
      ],
      "payable": false,
      "stateMutability": "view",
      "type": "function"
    }
  ],
  "bytecode": "0x608060405234801561001057600080fd5b506040516113163803806113168339818101604052604081101561003357600080fd5b810190808051906020019092919080519060200190929190505050816000806101000a81548173ffffffffffffffffffffffffffffffffffffffff021916908373ffffffffffffffffffffffffffffffffffffffff16021790555080600460006101000a81548173ffffffffffffffffffffffffffffffffffffffff021916908373ffffffffffffffffffffffffffffffffffffffff16021790555033600160006101000a81548173ffffffffffffffffffffffffffffffffffffffff021916908373ffffffffffffffffffffffffffffffffffffffff16021790555050506111f5806101216000396000f3fe608060405234801561001057600080fd5b506004361061009e5760003560e01c806373f03dff1161006657806373f03dff1461026357806375172a8b146102a7578063d72cdafc146102c5578063f4325d671461030f578063fa8f3455146103595761009e565b8063078e9d53146100a357806311fd8a831461017b57806312d43a51146101c5578063252408101461020f5780634bda2e2014610259575b600080fd5b610179600480360360408110156100b957600080fd5b81019080803573ffffffffffffffffffffffffffffffffffffffff169060200190929190803590602001906401000000008111156100f657600080fd5b82018360208201111561010857600080fd5b8035906020019184602083028401116401000000008311171561012a57600080fd5b919080806020026020016040519081016040528093929190818152602001838360200280828437600081840152601f19601f82011690508083019250505050505050919291929050505061039d565b005b6101836104f9565b604051808273ffffffffffffffffffffffffffffffffffffffff1673ffffffffffffffffffffffffffffffffffffffff16815260200191505060405180910390f35b6101cd61051f565b604051808273ffffffffffffffffffffffffffffffffffffffff1673ffffffffffffffffffffffffffffffffffffffff16815260200191505060405180910390f35b610217610545565b604051808273ffffffffffffffffffffffffffffffffffffffff1673ffffffffffffffffffffffffffffffffffffffff16815260200191505060405180910390f35b61026161056b565b005b6102a56004803603602081101561027957600080fd5b81019080803573ffffffffffffffffffffffffffffffffffffffff1690602001909291905050506107b6565b005b6102af610913565b6040518082815260200191505060405180910390f35b6102cd6109f3565b604051808273ffffffffffffffffffffffffffffffffffffffff1673ffffffffffffffffffffffffffffffffffffffff16815260200191505060405180910390f35b610317610a19565b604051808273ffffffffffffffffffffffffffffffffffffffff1673ffffffffffffffffffffffffffffffffffffffff16815260200191505060405180910390f35b61039b6004803603602081101561036f57600080fd5b81019080803573ffffffffffffffffffffffffffffffffffffffff169060200190929190505050610a3e565b005b600160009054906101000a900473ffffffffffffffffffffffffffffffffffffffff1673ffffffffffffffffffffffffffffffffffffffff163373ffffffffffffffffffffffffffffffffffffffff16146103f757600080fd5b60008090505b81518110156104f457600082828151811061041457fe5b6020026020010151905060008173ffffffffffffffffffffffffffffffffffffffff166370a08231306040518263ffffffff1660e01b8152600401808273ffffffffffffffffffffffffffffffffffffffff1673ffffffffffffffffffffffffffffffffffffffff16815260200191505060206040518083038186803b15801561049d57600080fd5b505afa1580156104b1573d6000803e3d6000fd5b505050506040513d60208110156104c757600080fd5b810190808051906020019092919050505090506104e5828683610da5565b505080806001019150506103fd565b505050565b600360009054906101000a900473ffffffffffffffffffffffffffffffffffffffff1681565b600160009054906101000a900473ffffffffffffffffffffffffffffffffffffffff1681565b600260009054906101000a900473ffffffffffffffffffffffffffffffffffffffff1681565b600260009054906101000a900473ffffffffffffffffffffffffffffffffffffffff1673ffffffffffffffffffffffffffffffffffffffff163373ffffffffffffffffffffffffffffffffffffffff161461062e576040517f08c379a00000000000000000000000000000000000000000000000000000000081526004018080602001828103825260088152602001807f2170656e64696e6700000000000000000000000000000000000000000000000081525060200191505060405180910390fd5b6000600160009054906101000a900473ffffffffffffffffffffffffffffffffffffffff169050600260009054906101000a900473ffffffffffffffffffffffffffffffffffffffff16600160006101000a81548173ffffffffffffffffffffffffffffffffffffffff021916908373ffffffffffffffffffffffffffffffffffffffff1602179055506000600260006101000a81548173ffffffffffffffffffffffffffffffffffffffff021916908373ffffffffffffffffffffffffffffffffffffffff1602179055507f1f14cfc03e486d23acee577b07bc0b3b23f4888c91fcdba5e0fef5a2549d552381600160009054906101000a900473ffffffffffffffffffffffffffffffffffffffff16604051808373ffffffffffffffffffffffffffffffffffffffff1673ffffffffffffffffffffffffffffffffffffffff1681526020018273ffffffffffffffffffffffffffffffffffffffff1673ffffffffffffffffffffffffffffffffffffffff1681526020019250505060405180910390a150565b600160009054906101000a900473ffffffffffffffffffffffffffffffffffffffff1673ffffffffffffffffffffffffffffffffffffffff163373ffffffffffffffffffffffffffffffffffffffff161461081057600080fd5b6000600260009054906101000a900473ffffffffffffffffffffffffffffffffffffffff16905081600260006101000a81548173ffffffffffffffffffffffffffffffffffffffff021916908373ffffffffffffffffffffffffffffffffffffffff1602179055507f6163d5b9efd962645dd649e6e48a61bcb0f9df00997a2398b80d135a9ab0c61e8183604051808373ffffffffffffffffffffffffffffffffffffffff1673ffffffffffffffffffffffffffffffffffffffff1681526020018273ffffffffffffffffffffffffffffffffffffffff1673ffffffffffffffffffffffffffffffffffffffff1681526020019250505060405180910390a15050565b60008060009054906101000a900473ffffffffffffffffffffffffffffffffffffffff1673ffffffffffffffffffffffffffffffffffffffff166370a08231306040518263ffffffff1660e01b8152600401808273ffffffffffffffffffffffffffffffffffffffff1673ffffffffffffffffffffffffffffffffffffffff16815260200191505060206040518083038186803b1580156109b357600080fd5b505afa1580156109c7573d6000803e3d6000fd5b505050506040513d60208110156109dd57600080fd5b8101908080519060200190929190505050905090565b600460009054906101000a900473ffffffffffffffffffffffffffffffffffffffff1681565b6000809054906101000a900473ffffffffffffffffffffffffffffffffffffffff1681565b600160009054906101000a900473ffffffffffffffffffffffffffffffffffffffff1673ffffffffffffffffffffffffffffffffffffffff163373ffffffffffffffffffffffffffffffffffffffff1614610a9857600080fd5b6000600360009054906101000a900473ffffffffffffffffffffffffffffffffffffffff169050600460009054906101000a900473ffffffffffffffffffffffffffffffffffffffff1673ffffffffffffffffffffffffffffffffffffffff1663a457c2d7827fffffffffffffffffffffffffffffffffffffffffffffffffffffffffffffffff6040518363ffffffff1660e01b8152600401808373ffffffffffffffffffffffffffffffffffffffff1673ffffffffffffffffffffffffffffffffffffffff16815260200182815260200192505050602060405180830381600087803b158015610b8857600080fd5b505af1158015610b9c573d6000803e3d6000fd5b505050506040513d6020811015610bb257600080fd5b81019080805190602001909291905050505081600360006101000a81548173ffffffffffffffffffffffffffffffffffffffff021916908373ffffffffffffffffffffffffffffffffffffffff160217905550600460009054906101000a900473ffffffffffffffffffffffffffffffffffffffff1673ffffffffffffffffffffffffffffffffffffffff1663095ea7b3837fffffffffffffffffffffffffffffffffffffffffffffffffffffffffffffffff6040518363ffffffff1660e01b8152600401808373ffffffffffffffffffffffffffffffffffffffff1673ffffffffffffffffffffffffffffffffffffffff16815260200182815260200192505050602060405180830381600087803b158015610cce57600080fd5b505af1158015610ce2573d6000803e3d6000fd5b505050506040513d6020811015610cf857600080fd5b8101908080519060200190929190505050507f51f448520e2183de499e224808a409ee01a1f380edb2e8497572320c150305458183604051808373ffffffffffffffffffffffffffffffffffffffff1673ffffffffffffffffffffffffffffffffffffffff1681526020018273ffffffffffffffffffffffffffffffffffffffff1673ffffffffffffffffffffffffffffffffffffffff1681526020019250505060405180910390a15050565b610e71838473ffffffffffffffffffffffffffffffffffffffff1663a9059cbb905060e01b8484604051602401808373ffffffffffffffffffffffffffffffffffffffff1673ffffffffffffffffffffffffffffffffffffffff16815260200182815260200192505050604051602081830303815290604052907bffffffffffffffffffffffffffffffffffffffffffffffffffffffff19166020820180517bffffffffffffffffffffffffffffffffffffffffffffffffffffffff8381831617835250505050610e76565b505050565b6060610ed8826040518060400160405280602081526020017f5361666545524332303a206c6f772d6c6576656c2063616c6c206661696c65648152508573ffffffffffffffffffffffffffffffffffffffff16610f659092919063ffffffff16565b9050600081511115610f6057808060200190516020811015610ef957600080fd5b8101908080519060200190929190505050610f5f576040517f08c379a000000000000000000000000000000000000000000000000000000000815260040180806020018281038252602a815260200180611197602a913960400191505060405180910390fd5b5b505050565b6060610f748484600085610f7d565b90509392505050565b6060610f8885611183565b610ffa576040517f08c379a000000000000000000000000000000000000000000000000000000000815260040180806020018281038252601d8152602001807f416464726573733a2063616c6c20746f206e6f6e2d636f6e747261637400000081525060200191505060405180910390fd5b600060608673ffffffffffffffffffffffffffffffffffffffff1685876040518082805190602001908083835b6020831061104a5780518252602082019150602081019050602083039250611027565b6001836020036101000a03801982511681845116808217855250505050505090500191505060006040518083038185875af1925050503d80600081146110ac576040519150601f19603f3d011682016040523d82523d6000602084013e6110b1565b606091505b509150915081156110c657809250505061117b565b6000815111156110d95780518082602001fd5b836040517f08c379a00000000000000000000000000000000000000000000000000000000081526004018080602001828103825283818151815260200191508051906020019080838360005b83811015611140578082015181840152602081019050611125565b50505050905090810190601f16801561116d5780820380516001836020036101000a031916815260200191505b509250505060405180910390fd5b949350505050565b600080823b90506000811191505091905056fe5361666545524332303a204552433230206f7065726174696f6e20646964206e6f742073756363656564a265627a7a723158209587d22ab3533ad0c5c8add1e713c4e013d35669dacc85ae51a07964e5465ce164736f6c63430005110032",
  "source": "pragma solidity 0.5.17;\n\nimport \"../lib/IERC20.sol\";\nimport \"../lib/SafeERC20.sol\";\nimport \"../token/YAMTokenInterface.sol\";\n\ncontract YAMReserves {\n\n    // Token that serves as a reserve for YAM\n    address public reserveToken;\n\n    address public gov;\n\n    address public pendingGov;\n\n    address public rebaser;\n\n    address public yamAddress;\n\n    /*** Gov Events ***/\n\n    /**\n     * @notice Event emitted when pendingGov is changed\n     */\n    event NewPendingGov(address oldPendingGov, address newPendingGov);\n\n    /**\n     * @notice Event emitted when gov is changed\n     */\n    event NewGov(address oldGov, address newGov);\n\n    /**\n     * @notice Event emitted when rebaser is changed\n     */\n    event NewRebaser(address oldRebaser, address newRebaser);\n\n\n    modifier onlyGov() {\n        require(msg.sender == gov);\n        _;\n    }\n\n    constructor(\n        address reserveToken_,\n        address yamAddress_\n    )\n        public\n    {\n        reserveToken = reserveToken_;\n        yamAddress = yamAddress_;\n        gov = msg.sender;\n    }\n\n    function _setRebaser(address rebaser_)\n        external\n        onlyGov\n    {\n        address oldRebaser = rebaser;\n        YAMTokenInterface(yamAddress).decreaseAllowance(oldRebaser, uint256(-1));\n        rebaser = rebaser_;\n        YAMTokenInterface(yamAddress).approve(rebaser_, uint256(-1));\n        emit NewRebaser(oldRebaser, rebaser_);\n    }\n\n    /** @notice sets the pendingGov\n     * @param pendingGov_ The address of the rebaser contract to use for authentication.\n     */\n    function _setPendingGov(address pendingGov_)\n        external\n        onlyGov\n    {\n        address oldPendingGov = pendingGov;\n        pendingGov = pendingGov_;\n        emit NewPendingGov(oldPendingGov, pendingGov_);\n    }\n\n    /**\n     * @notice lets msg.sender accept governance\n     */\n    function _acceptGov()\n        external\n    {\n        require(msg.sender == pendingGov, \"!pending\");\n        address oldGov = gov;\n        gov = pendingGov;\n        pendingGov = address(0);\n        emit NewGov(oldGov, gov);\n    }\n\n    /// @notice Moves all tokens to a new reserve contract\n    function migrateReserves(\n        address newReserve,\n        address[] memory tokens\n    )\n        public\n        onlyGov\n    {\n        for (uint256 i = 0; i < tokens.length; i++) {\n            IERC20 token =  IERC20(tokens[i]);\n            uint256 bal = token.balanceOf(address(this));\n            SafeERC20.safeTransfer(token, newReserve, bal);\n        }\n    }\n\n    /// @notice Gets the current amount of reserves token held by this contract\n    function reserves()\n        public\n        view\n        returns (uint256)\n    {\n        return IERC20(reserveToken).balanceOf(address(this));\n    }\n}\n",
  "sourcePath": "/Users/minakokojima/Documents/GitHub/my-yam-protocol/contracts/reserves/YAMReserves.sol",
  "compiler": {
    "name": "solc",
    "version": "0.5.17+commit.d19bba13.Emscripten.clang"
  },
  "schemaVersion": "3.2.0",
  "updatedAt": "2020-08-16T00:44:49.964Z",
  "networkType": "ethereum",
  "devdoc": {
    "methods": {
      "_setPendingGov(address)": {
        "params": {
          "pendingGov_": "The address of the rebaser contract to use for authentication."
        }
      }
    }
  },
  "userdoc": {
    "methods": {
      "_acceptGov()": {
        "notice": "lets msg.sender accept governance"
      },
      "_setPendingGov(address)": {
        "notice": "sets the pendingGov"
      },
      "migrateReserves(address,address[])": {
        "notice": "Moves all tokens to a new reserve contract"
      },
      "reserves()": {
        "notice": "Gets the current amount of reserves token held by this contract"
      }
    }
  }
}